:020000040800F2
:1000000000500020A90F0008B10E0008B90E00082A
:10001000C10E0008C90E0008D10E00080000000043
:10002000000000000000000000000000D90E0008E1
:10003000E50E000800000000F10E0008FD0E0008AB
:10004000F10F0008F10F0008F10F0008F10F000890
:10005000F10F0008F10F0008F10F0008F10F000880
:10006000F10F0008F10F0008F10F0008090F000858
:10007000F10F0008F10F0008F10F0008F10F000860
:10008000F10F0008F10F0008F10F0008F10F000850
:100090001D0F0008F10F0008F10F0008F10F000814
:1000A000F10F0008F10F0008F10F0008F10F000830
:1000B000F10F0008F10F0008F10F0008F10F000820
:1000C000F10F0008F10F0008F10F0008F10F000810
:1000D000F10F0008F10F0008F10F0008F10F000800
:1000E000F10F0008F10F0008F10F000800000000F8
:1000F0000000000000000000000000000000000000
:0C01000000000000000000005FF808F1A3
:10010C0010B5054C237833B9044B13B10448AFF345
:10011C0000800123237010BDCC01002000000000E2
:10012C00B4A2000808B5034B1BB103490348AFF355
:10013C00008008BD00000000D0010020B4A200081F
:10014C0080B5ADF5926D00AF00F04EFF00F07AFB7C
:10015C0000F036FD00F016FD00F0D2FB08F050FF69
:10016C0000F00CFC00F048FC00F094FC002387F835
:10017C008F34002387F88E34002387F88D340023C6
:10018C0087F88C34002387F88B34002387F84F349E
:10019C00002387F88A340023C7F884344FF6FF73A2
:1001AC00A7F882340021BF4804F0EEFABE4804F0F0
:1001BC0049FA4FF40072BD49BD4801F073F8BD4BCC
:1001CC001B685B68C3F50073BB4A13604FF4007186
:1001DC00BA4801F0DBFF0346002B0CBF01230023C0
:1001EC0087F84F3400F058FFC7F84804D7F8482474
:1001FC00D7F88434D31A322B40F29680AF4B9B68DD
:10020C00A7F84634B7F8463403F48063002B17D1B3
:10021C00B7F8823403F48063002B11D097F88F3435
:10022C00002B14BF01230023DBB283F00103DBB2EC
:10023C0087F88F3497F88F3403F0010387F88F34E5
:10024C00B7F8463403F40063002B17D1B7F88234A7
:10025C0003F40063002B11D097F88E34002B14BFDD
:10026C0001230023DBB283F00103DBB287F88E3469
:10027C0097F88E3403F0010387F88E34B7F84634C0
:10028C0003F48053002B17D1B7F8823403F4805356
:10029C00002B11D097F88D34002B14BF01230023B1
:1002AC00DBB283F00103DBB287F88D3497F88D3421
:1002BC0003F0010387F88D34B7F8463403F4804318
:1002CC00002B17D1B7F8823403F48043002B11D0E4
:1002DC0097F88C34002B14BF01230023DBB283F07E
:1002EC000103DBB287F88C3497F88C3403F00103EC
:1002FC0087F88C34B7F94634002B0DDBB7F9823410
:10030C00002B09DA97F88C34002B05D0012387F8E1
:10031C008B34002387F88C34B7F84634A7F8823432
:10032C00D7F84834C7F8843497F88C34002B0AD0AB
:10033C0097F88B3483F00103DBB2002B03D00A2037
:10034C0000F0B4FE67E25B4B1B685B68C3F500739F
:10035C00C7F840340023C7F87C340023C7F878343E
:10036C009623C7F83C345BE0534B1B684F4A32F87A
:10037C001330A7F83A3497F88F3483F00103DBB2CB
:10038C00002B21D0B7F83A24D7F83C34C3F50063DE
:10039C009A4202DA012387F88A3497F88A34002BC0
:1003AC0033D0D7F83C3403F2FF72B7F83A349A42A0
:1003BC002BDA0123C7F87C343F4B1B68C7F8783421
:1003CC00002387F88A3420E0B7F83A24D7F83C3475
:1003DC0003F500639A4202DD012387F88A3497F80B
:1003EC008A34002B11D0B7F83A24D7F83C34C3F533
:1003FC0000639A4209DC0123C7F87C342E4B1B683E
:10040C00C7F87834002387F88A342D4AB7F83A3481
:10041C001380294B1B680133C3F30803264A13606E
:10042C00254B1B68D7F840249A4203D0D7F87C346C
:10043C00002B99D0D7F87C34002B15D197F88E343B
:10044C0083F00103DBB2002B0ED000F025FE024638
:10045C001C4B1B68D31A322B06D90123C7F87C34EA
:10046C00D7F84034C7F87834D7F87C34002B3FF4F5
:10047C00ADAE00F011FE0346124A13600D4B1B6823
:10048C005B68C3F50073C7F83434D7F83424D7F855
:10049C0078349A4218D3D7F83424D7F87834D31A4E
:1004AC0019E000BFD40200208C0200201C030020A5
:1004BC00E8010020480200201C0B0020000C014029
:1004CC00200B0020240B0020D7F83424D7F87834E4
:1004DC00D31A03F50073C7F83034D7F830347F2BB8
:1004EC0000DCCBE700BF4FF40051CB4801F04EFECF
:1004FC000346002B0CBF01230023DBB2C7F82C34BE
:10050C00D7F87834C7F874340023C7F870344AE04D
:10051C00C24AD7F8743432F81330C7F81434D7F809
:10052C00143440F6E44203FB02F2BD4BA3FB02136E
:10053C00D21A52081344DB0AC7F81034D7F82C34FB
:10054C00002B07D0D7F81034A3F272635B00C7F806
:10055C006C3406E0D7F81034A3F239335B00C7F8DB
:10056C006C3497F84F34002B07D0D7F86C24134613
:10057C009B0013445B00C7F86C3407F59263A3F53A
:10058C009263D7F87024D7F86C1443F82210D7F87C
:10059C0074340133C3F30803C7F87434D7F87034D8
:1005AC000133C7F87034D7F870347F2BB0DD0023DB
:1005BC00C7F868340C229B499B4809F013FA0C23AA
:1005CC00C7F8683497F88D34002B6CD00023C7F82B
:1005DC00643464E007F59263A3F59263D7F864245E
:1005EC0053F82230C7F860340123C7F85C34D7F8CD
:1005FC006434002B12DDD7F864345A1E07F592636D
:10060C00A3F5926353F82230D7F860241344C7F84B
:10061C006034D7F85C340133C7F85C34D7F86434F1
:10062C00012B12DDD7F864349A1E07F59263A3F5FB
:10063C00926353F82230D7F860241344C7F860341F
:10064C00D7F85C340133C7F85C34D7F86434022B28
:10065C0012DDD7F86434DA1E07F59263A3F59263C2
:10066C0053F82230D7F860241344C7F86034D7F815
:10067C005C340133C7F85C34D7F86024D7F85C34A9
:10068C0092FBF3F107F59263A3F52473D7F8642476
:10069C0043F82210D7F864340133C7F86434D7F820
:1006AC0064347F2B96DD0023C7F8583480E097F82C
:1006BC008D34002B0AD007F59263A3F52473D7F879
:1006CC00582453F82230C7F8543409E007F59263E4
:1006DC00A3F59263D7F8582453F82230C7F8543452
:1006EC000023C7F85034D7F85434002B25DAD7F848
:1006FC0054345B42C7F82034D7F820344B4AA2FB61
:10070C0003239B09C7F81C34D7F82034474AA2FBB3
:10071C00031292094FF47A7101FB02F29B1AC7F88B
:10072C00183407F58060D7F81834D7F81C244049E2
:10073C0009F002F9C7F8500423E0D7F854343B4AC7
:10074C0082FB03129211DB17D31AC7F82834D7F89F
:10075C005424364B83FB02139911D317CB1A4FF445
:10076C007A7101FB03F3D31AC7F8243407F58060C0
:10077C00D7F82434D7F828242E4909F0DDF8C7F827
:10078C005004D7F86834284A1344D7F8502407F596
:10079C008061184609F026F9D7F86824D7F8503448
:1007AC001344C7F86834D7F858340133C7F85834B1
:1007BC00D7F858347F2B7FF77AAF1B4AD7F86834B9
:1007CC00134400221A70D7F868349BB219461648A5
:1007DC0008F0D4FC97F88B34002B05D0002387F855
:1007EC008B34012387F88C34052000F05FFC124B0E
:1007FC001B685B68C3F50073C3F308030F4A1360EF
:10080C000E4B1B6803F2FF13C3F30803034A32F8C1
:10081C0013200B4B1A80D9E4000C01401C03002060
:10082C0001011000CCA200081C070020D34D62105F
:10083C00DCA20008E8A20008480200201C0B0020E3
:10084C00200B002080B594B000AF07F128032822BC
:10085C000021184609F092F807F1140300221A60DF
:10086C005A609A60DA601A613B1D00221A605A6065
:10087C009A60DA600123BB624FF48033FB62002381
:10088C003B630123BB6302237B644FF48033BB6463
:10089C004FF4E013FB6407F12803184603F0EEF95C
:1008AC000346002B01D000F0CFF90F237B6102230C
:1008BC00BB610023FB614FF480633B6200237B62CE
:1008CC0007F114030221184603F05AFC0346002BCF
:1008DC0001D000F0B9F912237B604FF40043FB60A8
:1008EC0000233B613B1D184603F0A6FD0346002B7D
:1008FC0001D000F0A9F900BF5037BD4680BD000003
:10090C0080B584B000AF3B1D00221A605A609A601B
:10091C00184B194A1A60174B00229A60154B00228B
:10092C001A73144B00221A75124B4FF40022DA6121
:10093C00104B00225A600F4B01221A610D4800F037
:10094C00D9FB0346002B01D000F07EF900237B601D
:10095C000123BB600023FB603B1D1946054800F0DA
:10096C009BFD0346002B01D000F06EF900BF103741
:10097C00BD4680BDE80100200024014080B584B054
:10098C0000AF3B1D00221A605A609A60184B194A3E
:10099C001A60174B00229A60154B00221A73144BE5
:1009AC0000221A75124B4FF46022DA61104B0022B0
:1009BC005A600F4B01221A610D4800F09BFB034655
:1009CC00002B01D000F040F902237B600123BB60B7
:1009DC000023FB603B1D1946054800F05DFD0346F6
:1009EC00002B01D000F030F900BF1037BD4680BDA0
:1009FC00180200200028014080B586B000AF07F136
:100A0C00080300221A605A609A60DA603B460022A2
:100A1C001A605A601D4B1E4A1A601C4B00225A6009
:100A2C001A4B00229A60194B4FF6FF72DA60174B83
:100A3C0000221A61154B00229A61144803F0B2FD92
:100A4C000346002B01D000F0FFF84FF48053BB603D
:100A5C0007F1080319460D4803F0FAFF0346002B73
:100A6C0001D000F0F1F820233B6000237B603B4673
:100A7C001946064804F064FB0346002B01D000F035
:100A8C00E3F800BF1837BD4680BD00BF8C020020C4
:100A9C000004004080B58EB000AF07F1280300229F
:100AAC001A605A609A60DA6007F1200300221A601B
:100ABC005A603B1D00221A605A609A60DA601A6113
:100ACC005A619A612D4B2E4A1A602C4B47225A6060
:100ADC002A4B00229A60294B40F2E732DA60274B0E
:100AEC0000221A61254B00229A61244803F05AFD1A
:100AFC000346002B01D000F0A7F84FF48053BB62E3
:100B0C0007F1280319461D4803F0A2FF0346002BEA
:100B1C0001D000F099F8194803F0DEFD0346002BD4
:100B2C0001D000F091F800233B6200237B6207F1B7
:100B3C0020031946114804F003FB0346002B01D097
:100B4C0000F082F860237B604FF4FA73BB600023E3
:100B5C00FB6000237B613B1D00221946074803F014
:100B6C00B5FE0346002B01D000F06EF8034800F0F0
:100B7C0067F900BF3837BD4680BD00BFD4020020E6
:100B8C000008004080B582B000AF0C4B5B690B4A8B
:100B9C0043F001035361094B5B6903F001037B6074
:100BAC007B68002200210B2000F047FF0B2000F097
:100BBC0060FF00BF0837BD4680BD00BF001002407B
:100BCC0080B588B000AF07F1100300221A605A609C
:100BDC009A60DA601A4B9B69194A43F020039361BF
:100BEC00174B9B6903F02003FB60FB68144B9B695C
:100BFC00134A43F004039361114B9B6903F0040304
:100C0C00BB60BB680E4B9B690D4A43F008039361B4
:100C1C000B4B9B6903F008037B607B684FF47E43AE
:100C2C003B6100237B610123BB6107F11003194673
:100C3C00044801F027F900BF2037BD4680BD00BF36
:100C4C0000100240000C014080B400AF72B600BF2F
:100C5C0000BFFDE780B485B000AF154B9B69144A0B
:100C6C0043F001039361124B9B6903F00103BB60DA
:100C7C00BB680F4BDB690E4A43F08053D3610C4BBE
:100C8C00DB6903F080537B607B680A4B5B68FB601D
:100C9C00FB6823F0E063FB60FB6843F00073FB60D0
:100CAC00044AFB68536000BF1437BD4680BC7047D4
:100CBC00001002400000014080B58AB000AF78609F
:100CCC0007F1180300221A605A609A60DA607B6898
:100CDC001B683C4A93424AD13B4B9B693A4A43F4CA
:100CEC0000739361384B9B6903F400737B617B69E0
:100CFC00354B9B69344A43F004039361324B9B6937
:100D0C0003F004033B613B690123BB610323FB61DB
:100D1C0007F1180319462D4801F0B4F82C4B2D4A55
:100D2C001A602B4B00225A60294B00229A60284BE8
:100D3C008022DA60264B4FF480721A61244B4FF4F8
:100D4C0080625A61224B20229A61214B0022DA6187
:100D5C001F4800F0A9FE0346002B01D0FFF774FFDB
:100D6C007B681B4A1A621A4A7B68536226E07B68CE
:100D7C001B68194A934221D1134B9B69124A43F4C5
:100D8C0080639361104B9B6903F48063FB60FB6889
:100D9C000D4B9B690C4A43F0040393610A4B9B690E
:100DAC0003F00403BB60BB680423BB610323FB613A
:100DBC0007F118031946054801F064F800BF2837FD
:100DCC00BD4680BD002401400010024000080140D7
:100DDC0048020020080002400028014080B485B081
:100DEC0000AF78607B681B68124A93420CD1124B9F
:100DFC00DB69114A43F00203D3610F4BDB6903F04B
:100E0C000203FB60FB6810E07B681B680B4A934293
:100E1C000BD1094BDB69084A43F00403D361064B41
:100E2C00DB6903F00403BB60BB6800BF1437BD462D
:100E3C0080BC7047000400400010024000080040D5
:100E4C0080B588B000AF786007F1100300221A60FB
:100E5C005A609A60DA607B681B680F4A934217D11C
:100E6C000E4B9B690D4A43F0080393610B4B9B6936
:100E7C0003F00803FB60FB6840233B6102237B61AA
:100E8C000223FB6107F110031946054800F0FAFF35
:100E9C0000BF2037BD4680BD000800400010024056
:100EAC00000C014080B400AF00BFFDE780B400AF80
:100EBC0000BFFDE780B400AF00BFFDE780B400AF1A
:100ECC0000BFFDE780B400AF00BFFDE780B400AF0A
:100EDC0000BFBD4680BC704780B400AF00BFBD46AC
:100EEC0080BC704780B400AF00BFBD4680BC70476B
:100EFC0080B500AF00F0BEF800BF80BD80B500AF7C
:100F0C00024800F08BFE00BF80BD00BF48020020ED
:100F1C0080B500AF024801F06CFA00BF80BD00BF85
:100F2C00F817002080B586B000AF7860144A154BD6
:100F3C00D31A7B617B693B61134B1B68002B02D17D
:100F4C00114B124A1A60104B1A687B6813443A69A9
:100F5C009A4207D208F01AFD03460C221A604FF091
:100F6C00FF3309E0084B1B68FB60074B1A687B6872
:100F7C001344054A1360FB6818461837BD4680BDFC
:100F8C000050002000040000280B0020381E002018
:100F9C0080B400AF00BFBD4680BC7047FFF7F8FFC0
:100FAC000B480C490C4A002302E0D458C4500433BB
:100FBC00C4188C42F9D3094A094C002301E0136090
:100FCC000432A242FBD308F0E7FCFFF7B9F87047F4
:100FDC0000000020CC0100209CA30008CC010020C4
:100FEC00381E0020FEE7000080B500AF084B1B68E0
:100FFC00074A43F010031360032000F013FD0F2089
:10100C0000F008F8FFF726FE0023184680BD00BF4D
:10101C000020024080B582B000AF7860124B1A6895
:10102C00124B1B7819464FF47A73B3FBF1F3B2FBF6
:10103C00F3F3184600F02BFD0346002B01D00123DF
:10104C000EE07B680F2B0AD8002279684FF0FF3036
:10105C0000F0F3FC064A7B681360002300E00123D8
:10106C0018460837BD4680BD00000020080000204F
:10107C000400002080B400AF054B1B781A46054BCA
:10108C001B681344034A136000BFBD4680BC704705
:10109C00080000202C0B002080B400AF024B1B6812
:1010AC001846BD4680BC70472C0B002080B584B020
:1010BC0000AF7860FFF7F0FFB8607B68FB60FB68FF
:1010CC00B3F1FF3F05D00A4B1B781A46FB6813445B
:1010DC00FB6000BFFFF7E0FF0246BB68D31AFA685B
:1010EC009A42F7D800BF00BF1037BD4680BD00BF85
:1010FC000800002080B586B000AF78600023FB7537
:10110C0000233B610023BB600023FB607B68002B4A
:10111C0001D10123BEE07B689B68002B7B689B6A36
:10112C00002B09D17B680022DA627B68002283F8ED
:10113C0024207868FFF7C0FD786800F0FFFA0346BA
:10114C00FB757B689B6A03F01003002B40F09980C1
:10115C00FB7D002B40F095807B689B6A23F48853C1
:10116C0023F0020343F002027B689A627B685A68A0
:10117C007B68DB691A437B681B7B5B001343BA6893
:10118C001343BB607B689B68B3F5807F03D07B689F
:10119C009B68012B02D14FF4807300E000233A6965
:1011AC0013433B617B681B7D012B19D17B681B7B37
:1011BC00002B09D17B689B69013B5A033B691343A4
:1011CC0043F400633B610BE07B689B6A43F02002B5
:1011DC007B689A627B68DB6A43F001027B68DA62A7
:1011EC007B681B685B6823F469417B681B683A6900
:1011FC000A435A607B681B689A68284B13407A68CC
:10120C001268B9680B4393607B689B68B3F5807F69
:10121C0003D07B689B68012B04D17B681B69013B65
:10122C001B05FB607B681B68DB6A23F470017B6821
:10123C001B68FA680A43DA627B681B689A68184B69
:10124C001340BA689A420BD17B680022DA627B6841
:10125C009B6A23F0030343F001027B689A6218E057
:10126C007B689B6A23F0120343F010027B689A623E
:10127C007B68DB6A43F001027B68DA620123FB7551
:10128C0007E07B689B6A43F010027B689A6201233B
:10129C00FB75FB7D18461837BD4680BDFDF7E1FF99
:1012AC00FE0E1FFF80B586B000AFF860B9607A60A3
:1012BC000023FB75FB681B68644A934204D0FB68EF
:1012CC001B68634A934206D1604B5B6803F470233E
:1012DC00002B40F0B380FB6893F82430012B01D134
:1012EC000223AEE0FB68012283F82420F86800F0AA
:1012FC00CBF90346FB75FB7D002B40F09A80FB6815
:10130C009B6A23F4706323F0010343F48072FB683F
:10131C009A62FB681B684E4A934205D14B4B5B6843
:10132C0003F47023002B15D1FB689B6A23F4801205
:10133C00FB689A62FB681B685B6803F48063002B94
:10134C0026D0FB689B6A23F4405343F48052FB681D
:10135C009A621DE0FB689B6A43F48012FB689A62F8
:10136C00FB681B68394A934204D0FB681B68384AF7
:10137C0093420DD1354B5B6803F48063002B07D08F
:10138C00FB689B6A23F4405343F48052FB689A62D7
:10139C00FB689B6A03F48053002B06D0FB68DB6A66
:1013AC0023F00602FB68DA6202E0FB680022DA62D4
:1013BC00FB68002283F82420FB681B6A254A9A628A
:1013CC00FB681B6A244ADA62FB681B6A234A1A63AD
:1013DC00FB681B686FF002021A60FB681B689A6856
:1013EC00FB681B6842F480729A60FB68186AFB68A1
:1013FC001B684C331946BA687B6800F0AFFBFB687E
:10140C001B689B6803F46023B3F5602F08D1FB685D
:10141C001B689A68FB681B6842F4A0029A600FE094
:10142C00FB681B689A68FB681B6842F480129A6020
:10143C0006E0FB68002283F8242001E00123FB7501
:10144C00FB7D18461837BD4680BD00BF0024014007
:10145C0000280140CB170008471800086318000843
:10146C0080B483B000AF786000BF0C37BD4680BC41
:10147C00704780B483B000AF786000BF0C37BD46B6
:10148C0080BC704780B483B000AF786000BF0C376D
:10149C00BD4680BC7047000080B485B000AF78605A
:1014AC0039600023FB730023BB607B6893F8243006
:1014BC00012B01D10223DCE07B68012283F824207C
:1014CC003B685B68062B1CD87B681B68596B3B68B8
:1014DC005A6813469B001344053B1F2202FA03F380
:1014EC00DB4319403B6818683B685A6813469B00FD
:1014FC001344053B00FA03F27B681B680A435A63EA
:10150C003CE03B685B680C2B1CD87B681B68196B38
:10151C003B685A6813469B001344233B1F2202FA74
:10152C0003F3DB4319403B6818683B685A68134661
:10153C009B001344233B00FA03F27B681B680A43AD
:10154C001A631BE07B681B68D96A3B685A681346B0
:10155C009B001344413B1F2202FA03F3DB43194067
:10156C003B6818683B685A6813469B001344413B20
:10157C0000FA03F27B681B680A43DA623B681B685B
:10158C00092B1CD97B681B68D9683B681A68134601
:10159C005B0013441E3B072202FA03F3DB431940A2
:1015AC003B6898683B681A6813465B0013441E3B03
:1015BC0000FA03F27B681B680A43DA6019E07B6867
:1015CC001B6819693B681A6813465B0013440722B1
:1015DC0002FA03F3DB4319403B6898683B681A68CE
:1015EC0013465B00134400FA03F27B681B680A4342
:1015FC001A613B681B68102B03D03B681B68112BCE
:10160C0032D17B681B681D4A934225D17B681B68CD
:10161C009B6803F40003002B26D17B681B689A6837
:10162C007B681B6842F400029A603B681B68102BB5
:10163C001AD1134B1B68134AA2FB03239A0C1346B3
:10164C009B0013445B00BB6002E0BB68013BBB60CA
:10165C00BB68002BF9D107E07B689B6A43F0200242
:10166C007B689A620123FB737B68002283F8242039
:10167C00FB7B18461437BD4680BC704700240140E4
:10168C000000002083DE1B4380B584B000AF78607F
:10169C000023FB600023BB607B681B689B6803F026
:1016AC000103012B40D07B681B689A687B681B6820
:1016BC0042F001029A601F4B1B681F4AA2FB0323D6
:1016CC009B0CBB6002E0BB68013BBB60BB68002BA2
:1016DC00F9D1FFF7E1FCF8601FE0FFF7DDFC0246F3
:1016EC00FB68D31A022B18D97B681B689B6803F024
:1016FC000103012B11D07B689B6A43F010027B68BD
:10170C009A627B68DB6A43F001027B68DA627B6871
:10171C00002283F82420012307E07B681B689B6868
:10172C0003F00103012BD8D1002318461037BD4616
:10173C0080BD00BF0000002083DE1B4380B584B059
:10174C0000AF78600023FB607B681B689B6803F02C
:10175C000103012B2ED17B681B689A687B681B6880
:10176C0022F001029A60FFF797FCF8601BE0FFF78C
:10177C0093FC0246FB68D31A022B14D97B681B68B6
:10178C009B6803F00103012B0DD17B689B6A43F02E
:10179C0010027B689A627B68DB6A43F001027B680B
:1017AC00DA62012307E07B681B689B6803F0010386
:1017BC00012BDCD0002318461037BD4680BD80B508
:1017CC0084B000AF78607B685B6AFB60FB689B6AE7
:1017DC0003F05003002B27D1FB689B6A43F4007283
:1017EC00FB689A62FB681B689B6803F46023B3F583
:1017FC00602F15D1FB681B7B002B11D1FB689B6AFA
:10180C0023F48072FB689A62FB689B6A03F4805332
:10181C00002B05D1FB689B6A43F00102FB689A62BE
:10182C00F868FFF71DFE04E0FB681B6A1B6B786809
:10183C00984700BF1037BD4680BD80B584B000AF5F
:10184C0078607B685B6AFB60F868FFF712FE00BF8C
:10185C001037BD4680BD80B584B000AF78607B6822
:10186C005B6AFB60FB689B6A43F04002FB689A6210
:10187C00FB68DB6A43F00402FB68DA62F868FFF786
:10188C0001FE00BF1037BD4680BD000080B485B09E
:10189C0000AF78607B6803F00703FB600C4BDB68E0
:1018AC00BB60BA684FF6FF031340BB60FB681A02BB
:1018BC00BB68134343F0BF6343F40033BB60044A7B
:1018CC00BB68D36000BF1437BD4680BC704700BFF7
:1018DC0000ED00E080B400AF044BDB681B0A03F0A2
:1018EC0007031846BD4680BC704700BF00ED00E002
:1018FC0080B483B000AF0346FB7197F90730002B1F
:10190C000BDBFB7903F01F02064997F907305B09E3
:10191C00012000FA02F241F8232000BF0C37BD462B
:10192C0080BC704700E100E080B483B000AF034698
:10193C003960FB7197F90730002B0ADB3B68DAB290
:10194C000C4997F907301201D2B20B4483F80023EB
:10195C000AE03B68DAB20849FB7903F00F03043B59
:10196C001201D2B20B441A7600BF0C37BD4680BCB4
:10197C00704700BF00E100E000ED00E080B489B0EA
:10198C0000AFF860B9607A60FB6803F00703FB6195
:10199C00FB69C3F10703042B28BF0423BB61FB695C
:1019AC000433062B02D9FB69033B00E000237B6167
:1019BC004FF0FF32BB6902FA03F3DA43BB681A40FB
:1019CC007B699A404FF0FF317B6901FA03F3D943ED
:1019DC007B680B40134318462437BD4680BC7047C8
:1019EC0080B582B000AF78607B68013BB3F1807F3B
:1019FC0001D301230FE00A4A7B68013B53600F219E
:101A0C004FF0FF30FFF790FF054B00229A60044B1C
:101A1C0007221A60002318460837BD4680BD00BF58
:101A2C0010E000E080B582B000AF78607868FFF716
:101A3C002DFF00BF0837BD4680BD80B586B000AF16
:101A4C000346B9607A60FB7300237B61FFF742FFAA
:101A5C0078617A68B9687869FFF790FF024697F960
:101A6C000F3011461846FFF75FFF00BF1837BD4611
:101A7C0080BD80B582B000AF0346FB7197F907308B
:101A8C001846FFF735FF00BF0837BD4680BD80B54F
:101A9C0082B000AF78607868FFF7A2FF0346184663
:101AAC000837BD4680BD000080B485B000AF7860BB
:101ABC000023FB607B68002B01D1012343E07B6892
:101ACC001B681A46224B1344224AA2FB03231B0910
:101ADC009A007B681A647B681F4ADA637B6802226F
:101AEC0083F821207B681B681B68FB60FB6823F470
:101AFC007F5323F03003FB607B685A687B689B68DC
:101B0C001A437B68DB681A437B681B691A437B6842
:101B1C005B691A437B689B691A437B68DB691343D7
:101B2C00FA681343FB607B681B68FA681A607B6871
:101B3C0000229A637B68012283F821207B680022B3
:101B4C0083F82020002318461437BD4680BC70470C
:101B5C00F8FFFDBFCDCCCCCC0000024080B586B0E8
:101B6C0000AFF860B9607A603B600023FB75FB68DE
:101B7C0093F82030012B01D102234BE0FB680122AA
:101B8C0083F82020FB6893F82130DBB2012B3AD18B
:101B9C00FB68022283F82120FB6800229A63FB6811
:101BAC001B681A68FB681B6822F001021A603B680C
:101BBC007A68B968F86800F037F9FB68DB6A002BC3
:101BCC0008D0FB681B681A68FB681B6842F00E02A1
:101BDC001A600FE0FB681B681A68FB681B6822F030
:101BEC0004021A60FB681B681A68FB681B6842F0E9
:101BFC000A021A60FB681B681A68FB681B6842F0D3
:101C0C0001021A6005E0FB68002283F82020022301
:101C1C00FB75FB7D18461837BD4680BD80B584B07A
:101C2C0000AF78607B68DB6B1B68FB607B681B68B4
:101C3C001B68BB607B681B6C04229A40FB681340DA
:101C4C00002B4FD0BB6803F00403002B4AD07B68F9
:101C5C001B681B6803F02003002B07D17B681B68F3
:101C6C001A687B681B6822F004021A607B681B6888
:101C7C00664A934229D07B681B68654A934222D0FE
:101C8C007B681B68634A93421AD07B681B68624A64
:101C9C00934212D07B681B68604A93420AD07B68DF
:101CAC001B685F4A934202D14FF480030EE04FF061
:101CBC0080630BE04FF4802308E04FF4804305E091
:101CCC004FF4806302E0402300E00423554A536044
:101CDC007B68DB6A002B00F094807B68DB6A786899
:101CEC0098478EE07B681B6C02229A40FB6813407D
:101CFC00002B56D0BB6803F00203002B51D07B683D
:101D0C001B681B6803F02003002B0BD17B681B683E
:101D1C001A687B681B6822F00A021A607B68012231
:101D2C0083F821207B681B68384A934229D07B6852
:101D3C001B68374A934222D07B681B68354A934212
:101D4C001AD07B681B68344A934212D07B681B689C
:101D5C00324A93420AD07B681B68314A934202D1C3
:101D6C004FF400130EE04FF000730BE04FF4003310
:101D7C0008E04FF4005305E04FF4007302E0202319
:101D8C0000E00223274A53607B68002283F820205E
:101D9C007B689B6A002B34D07B689B6A7868984779
:101DAC002FE07B681B6C08229A40FB681340002BC9
:101DBC0028D0BB6803F00803002B23D07B681B687A
:101DCC001A687B681B6822F00E021A607B681A6C1A
:101DDC007B68DB6B012101FA02F25A607B680122FD
:101DEC009A637B68012283F821207B68002283F8A8
:101DFC0020207B681B6B002B04D07B681B6B7868E6
:101E0C00984700BF00BF1037BD4680BD0800024098
:101E1C001C000240300002404400024058000240C6
:101E2C006C0002400000024080B485B000AFF86046
:101E3C00B9607A603B60FB681A6CFB68DB6B012154
:101E4C0001FA02F25A60FB681B683A685A60FB6838
:101E5C005B68102B08D1FB681B687A689A60FB687A
:101E6C001B68BA68DA6007E0FB681B68BA689A609E
:101E7C00FB681B687A68DA6000BF1437BD4680BC0B
:101E8C007047000080B48BB000AF786039600023DD
:101E9C007B6200233B6269E101227B6A02FA03F355
:101EAC00FB613B681B68FA691340BB61BA69FB694B
:101EBC009A4240F058813B685B689A4A93425ED0E4
:101ECC00984A934275D8984A934258D0964A93426E
:101EDC006FD8964A934252D0944A934269D8944A06
:101EEC0093424CD0924A934263D8924A934246D042
:101EFC00904A93425DD8122B2AD8122B59D801A2A2
:101F0C0052F823F08B1F0008651F0008771F00088C
:101F1C00B91F0008BF1F0008BF1F0008BF1F000823
:101F2C00BF1F0008BF1F0008BF1F0008BF1F00080D
:101F3C00BF1F0008BF1F0008BF1F0008BF1F0008FD
:101F4C00BF1F0008BF1F00086D1F0008811F00087D
:101F5C00794A934213D02CE03B68DB683B6229E062
:101F6C003B68DB6804333B6224E03B68DB68083386
:101F7C003B621FE03B68DB680C333B621AE03B685A
:101F8C009B68002B02D104233B6213E03B689B68E7
:101F9C00012B05D108233B627B68FA691A6109E0C1
:101FAC0008233B627B68FA695A6103E000233B62B9
:101FBC0000E000BFBB69FF2B01D87B6801E07B68A8
:101FCC0004337B61BB69FF2B02D87B6A9B0002E068
:101FDC007B6A083B9B003B617B691A680F213B695C
:101FEC0001FA03F3DB431A40396A3B6901FA03F344
:101FFC001A437B691A603B685B6803F08053002BC3
:10200C0000F0B1804D4B9B694C4A43F00103936146
:10201C004A4B9B6903F00103BB60BB68484A7B6A6F
:10202C009B08023352F82330FB607B6A03F00303F6
:10203C009B000F2202FA03F3DB43FA681340FB60A8
:10204C007B68404A934213D07B683F4A93420DD041
:10205C007B683E4A934207D07B683D4A934201D14C
:10206C00032306E0042304E0022302E0012300E042
:10207C0000237A6A02F0030292009340FA68134339
:10208C00FB602F497B6A9B080233FA6841F82320D6
:10209C003B685B6803F48013002B06D02D4B9A68C9
:1020AC002C49BB6913438B6006E02A4B9A68BB69C9
:1020BC00DB43284913408B603B685B6803F40013D7
:1020CC00002B06D0234BDA682249BB691343CB6043
:1020DC0006E0204BDA68BB69DB431E491340CB603A
:1020EC003B685B6803F40033002B06D0194B5A682D
:1020FC001849BB6913434B6006E0164B5A68BB6921
:10210C00DB43144913404B603B685B6803F480333A
:10211C00002B21D00F4B1A680E49BB6913430B607F
:10212C0021E000BF0000321000003110000022102E
:10213C0000002110000012100000111000100240CD
:10214C000000014000080140000C0140001001405B
:10215C0000140140000401400B4B1A68BB69DB43BF
:10216C00094913400B607B6A01337B623B681A6838
:10217C007B6A22FA03F3002B7FF48EAE00BF00BF04
:10218C002C37BD4680BC70470004014080B485B03C
:10219C0000AF78600B467B807B689A687B88134025
:1021AC00002B02D00123FB7301E00023FB73FB7BAC
:1021BC0018461437BD4680BC704780B584B000AF5C
:1021CC0078607B68002B01D10123E8E07B6893F8F1
:1021DC009132DBB2002B06D17B68002283F890226F
:1021EC00786807F0FFF87B68032283F891227B68FC
:1021FC0000225A717B681B68184603F022F87B6832
:10220C0018687B6804330ECB02F0F8FF0346002BF2
:10221C0005D07B68022283F891220123BFE07B6802
:10222C001B680021184603F026F80346002B05D046
:10223C007B68022283F891220123B0E00023FB7318
:10224C003EE0FA7B796813469B001344DB000B4499
:10225C00113301221A70FA7B796813469B001344E0
:10226C00DB000B441033FA7B1A70FA7B7968134647
:10227C009B001344DB000B44133300221A70FA7BCF
:10228C00796813469B001344DB000B442033002277
:10229C001A60FA7B796813469B001344DB000B44ED
:1022AC00243300221A60FB7B79685A1C13469B006E
:1022BC001344DB000B4400221A60FB7B0133FB73DD
:1022CC007B681B79FA7B9A42BBD30023FB7344E0F7
:1022DC00FA7B796813469B001344DB000B4403F232
:1022EC00511300221A70FA7B796813469B00134431
:1022FC00DB000B4403F5A873FA7B1A70FA7B796840
:10230C0013469B001344DB000B4403F253130022CF
:10231C001A70FA7B796813469B001344DB000B445C
:10232C0003F5B07300221A60FA7B796813469B00A0
:10233C001344DB000B4403F5B27300221A60FA7BE2
:10234C00796813469B001344DB000B4403F5B4730C
:10235C0000221A60FB7B0133FB737B681B79FA7BD1
:10236C009A42B5D37B6818687B6804330ECB02F0B5
:10237C008EFF0346002B05D07B68022283F8912246
:10238C0001230CE07B6800225A737B68012283F8DE
:10239C0091227B681B68184605F00DFA002318463D
:1023AC001037BD4680BD80B582B000AF78607B68C9
:1023BC0093F89032012B01D1022316E07B680122A5
:1023CC0083F890227B681B68184602F024FF0121D9
:1023DC00786807F07AFA7B681B68184605F0E1F913
:1023EC007B68002283F89022002318460837BD46EC
:1023FC0080BD80B588B000AF78607B681B681846DC
:10240C0005F0E3F9B861BB6903F40043002B03D07A
:10241C00786800F01AFB19E1BB6903F48063002BA8
:10242C0013D07B681B68B3F844309AB27B681B6886
:10243C0022F4806292B2A3F84420786807F04DF839
:10244C000021786800F005F900E1BB6903F48043D2
:10245C00002B0CD07B681B68B3F844309AB27B68B5
:10246C001B6822F4804292B2A3F84420EEE0BB69D0
:10247C0003F40053002B0CD07B681B68B3F844307A
:10248C009AB27B681B6822F4005292B2A3F84420E3
:10249C00DCE0BB6903F48053002B27D07B681B68FE
:1024AC00B3F840309AB27B681B6822F0040292B2F7
:1024BC00A3F840207B681B68B3F840309AB27B6865
:1024CC001B6822F0080292B2A3F84020786807F04B
:1024DC003DF87B681B68B3F844309AB27B681B6884
:1024EC0022F4805292B2A3F84420AFE0BB6903F40B
:1024FC000063002B00F083800023FB7710E07B68E7
:10250C001B681A46FB7F9B001A44FB7F128892B211
:10251C005B0020333B4423F8182CFB7F0133FB7703
:10252C00FB7F072BEBD97B681B68B3F840309AB262
:10253C007B681B6842F0010292B2A3F840207B68D2
:10254C001B68B3F840309AB27B681B6822F001021A
:10255C0092B2A3F8402000BF7B681B68B3F84430EC
:10256C009BB203F48063002BF6D07B681B68B3F836
:10257C0044309AB27B681B6822F4806292B2A3F852
:10258C0044200023FB770FE0FB7F7A68126811462A
:10259C00FA7F92000A445B0020333B4433F8183C2A
:1025AC001380FB7F0133FB77FB7F072BECD97B6818
:1025BC001B68B3F840309AB27B681B6842F0080283
:1025CC0092B2A3F840207B681B68B3F844309AB2EF
:1025DC007B681B6822F4006292B2A3F844207B68EB
:1025EC001B68B3F840309AB27B681B6842F0040257
:1025FC0092B2A3F84020786806F08EFF26E0BB6903
:10260C0003F40073002B0FD07B681B68B3F84430C5
:10261C009AB27B681B6822F4007292B2A3F8442031
:10262C00786806F04CFF11E0BB6903F48073002B53
:10263C000CD07B681B68B3F844309AB27B681B687B
:10264C0022F4807292B2A3F8442000BF2037BD461A
:10265C0080BD80B582B000AF78600B46FB707B68A4
:10266C0093F89032012B01D1022312E07B680122F6
:10267C0083F890227B68FA785A737B681B68FA7827
:10268C001146184605F07AF87B68002283F89022F0
:10269C00002318460837BD4680BD80B584B000AF16
:1026AC007860084611461A460346FB700B463B8081
:1026BC001346BB700023FB7297F90330002B0EDA24
:1026CC00FB7803F0070213469B001344DB00103326
:1026DC007A681344FB60FB6801225A700EE0FB78A9
:1026EC0003F0070213469B001344DB0003F5A873A9
:1026FC007A681344FB60FB6800225A70FB7803F085
:10270C000703DAB2FB681A703A88FB681A61FB6837
:10271C00BA78DA70BB78022B02D1FB6800221A71EE
:10272C007B6893F89032012B01D102230EE07B6879
:10273C00012283F890227B681B68F968184602F026
:10274C00C3FD7B68002283F89022FB7A1846103771
:10275C00BD4680BD80B584B000AF78600B46FB7081
:10276C0097F90330002B0EDAFB7803F007021346BF
:10277C009B001344DB0010337A681344FB60FB6846
:10278C0001225A700EE0FB7803F0070213469B00FF
:10279C001344DB0003F5A8737A681344FB60FB68F1
:1027AC0000225A70FB7803F00703DAB2FB681A7048
:1027BC007B6893F89032012B01D102230EE07B68E9
:1027CC00012283F890227B681B68F968184603F095
:1027DC003BF97B68002283F89022002318461037BF
:1027EC00BD4680BD80B586B000AFF8607A603B60B6
:1027FC000B46FB72FB7A03F0070213469B00134453
:10280C00DB0003F5A873FA6813447B617B697A6873
:10281C005A617B693A689A617B690022DA617B694B
:10282C0000225A70FB7A03F00703DAB27B691A7044
:10283C00FB681B687969184603F0F2FA0023184606
:10284C001837BD4680BD80B483B000AF78600B46AE
:10285C00FB70FB7803F00702796813469B00134466
:10286C00DB000B4403F5B6731B6818460C37BD46EA
:10287C0080BC704780B586B000AFF8607A603B6072
:10288C000B46FB72FB7A03F0070213469B001344C2
:10289C00DB001033FA6813447B617B697A685A61F8
:1028AC007B693A689A617B69012283F824207B69F1
:1028BC003A681A627B690022DA617B6901225A70DC
:1028CC00FB7A03F00703DAB27B691A70FB681B68AA
:1028DC007969184603F0A4FA002318461837BD4648
:1028EC0080BD80B584B000AF78600B46FB70FB7880
:1028FC0003F007037A681279934201D901234CE063
:10290C0097F90330002B0EDAFB7803F0070213461D
:10291C009B001344DB0010337A681344FB60FB68A4
:10292C0001225A700CE0FA7813469B001344DB002A
:10293C0003F5A8737A681344FB60FB6800225A7095
:10294C00FB6801229A70FB7803F00703DAB2FB688C
:10295C001A707B6893F89032012B01D102231CE092
:10296C007B68012283F890227B681B68F968184603
:10297C0004F007FEFB7803F00703002B08D17B68FB
:10298C001A687B6803F526731946104604F02CFF71
:10299C007B68002283F89022002318461037BD462E
:1029AC0080BD80B584B000AF78600B46FB70FB78BF
:1029BC0003F00F037A681279934201D9012340E0A6
:1029CC0097F90330002B0EDAFB7803F0070213465D
:1029DC009B001344DB0010337A681344FB60FB68E4
:1029EC0001225A700EE0FB7803F0070213469B009D
:1029FC001344DB0003F5A8737A681344FB60FB688F
:102A0C0000225A70FB6800229A70FB7803F00703CF
:102A1C00DAB2FB681A707B6893F89032012B01D103
:102A2C0002230EE07B68012283F890227B681B68EE
:102A3C00F968184604F0F5FD7B68002283F89022B3
:102A4C00002318461037BD4680BD80B596B000AF48
:102A5C007860BBE37B681B68B3F84430A7F84E3052
:102A6C00B7F84E30DBB203F00F0387F84D3097F810
:102A7C004D30002B40F07581B7F84E3003F0100349
:102A8C00002B4ED17B681B681B889BB223F4E1435F
:102A9C0023F07003FB817B681A68FB896FEA434360
:102AAC006FEA53439BB213807B6810337B657B6862
:102ABC001B68B3F850309BB21A467B6D1B78DB0059
:102ACC00134402335B007A681268134403F5806385
:102ADC001B88C3F309027B6DDA617B6D5A697B6DD0
:102AEC00DB691A447B6D5A610021786806F0CDFCD5
:102AFC007B685B7BDBB2002B00F068837B6D9B6992
:102B0C00002B40F063837B685B7BDBB263F07F035D
:102B1C00DAB27B681B68A3F84C207B6800225A73DE
:102B2C0054E37B6803F5A8737B657B681B681B8883
:102B3C00A7F84A30B7F84A3003F40063002B34D0BE
:102B4C007B681B68B3F850309BB21A467B6D1B78C0
:102B5C00DB00134406335B007A681268134403F5F8
:102B6C0080631B88C3F309027B6DDA617B6818688C
:102B7C007B6803F526717B6DDA887B6DDB699BB214
:102B8C0004F083FE7B681B681B889AB240F68F7337
:102B9C0013403B827B681B683A8A42F0800292B2F7
:102BAC001A80786806F044FC10E3B7F94A30002B21
:102BBC0080F20C837B681B681B889AB240F68F737B
:102BCC001340FB837B681B68FA8B42F0800292B245
:102BDC001A807B681B68B3F850309BB21A467B6D29
:102BEC001B78DB00134406335B007A6812681344CD
:102BFC0003F580631B88C3F309027B6DDA617B6D7F
:102C0C00DB69002B19D07B6D5B69002B15D07B68C1
:102C1C0018687B6D59697B6DDA887B6DDB699BB2BB
:102C2C0004F033FE7B6D5A697B6DDB691A447B6D56
:102C3C005A610021786806F00DFC7B681B681B88C4
:102C4C00A7F84A30B7F84A3003F40063002B40F081
:102C5C00BD82B7F84A3003F44053B3F5405F00F03F
:102C6C00B5827B681B68BB617B681B68B3F850300E
:102C7C009BB21A46BB691344BB61BB6903F20C439C
:102C8C007B617B691B889BB2C3F309039AB27B6996
:102C9C001A807B6D1B693E2B1DD97B6D1B695B09F3
:102CAC007B647B6D1B6903F01F03002B02D17B6CD3
:102CBC00013B7B647B691B889AB27B6C9BB29B0249
:102CCC009BB213439BB26FEA43436FEA53439AB2EE
:102CDC007B691A8026E07B6D1B69002B0AD17B690E
:102CEC001B889BB26FEA43436FEA53439AB27B69EA
:102CFC001A8017E07B6D1B695B087B647B6D1B691D
:102D0C0003F00103002B02D07B6C01337B647B69E5
:102D1C001B889AB27B6C9BB29B029BB213439AB2F8
:102D2C007B691A807B681B681B889BB223F48043E9
:102D3C0023F070037B827B8A83F480537B827B8AB3
:102D4C0083F400537B827B681A687B8A43F07F4351
:102D5C0043F47F0343F4004343F080039BB213809E
:102D6C0034E27B681B681A4697F84D309B0013447D
:102D7C001B88A7F84A30B7F94A30002B80F2FC8048
:102D8C007B681B681A4697F84D309B0013441B88D0
:102D9C009AB240F68F731340A7F848307B681B68D3
:102DAC001A4697F84D309B001344B7F8482042F070
:102DBC00800292B21A8097F84D2013469B00134460
:102DCC00DB0003F5A8737A6813447B657B6D1B7B72
:102DDC00002B25D17B681B68B3F850309BB21A4688
:102DEC007B6D1B78DB00134406335B007A6812683A
:102DFC00134403F580631B88C3F30903A7F8503011
:102E0C00B7F85030002B00F092807B6818687B6D0F
:102E1C0059697B6DDA88B7F8503004F036FD86E0DE
:102E2C007B6DDB78022B0AD1B7F84A301A46796DE4
:102E3C00786800F0D9F90346A7F8503077E07B6842
:102E4C001B681A467B6D1B789B0013441B889BB236
:102E5C0023F4E04323F07003A7F852307B681B681F
:102E6C001A467B6D1B789B001A44B7F8523043F01E
:102E7C007F4343F47F0343F4004343F0C0039BB20E
:102E8C0013807B681B681A467B6D1B789B00134470
:102E9C001B889BB203F48043002B24D07B681B68F7
:102EAC00B3F850309BB21A467B6D1B78DB00134491
:102EBC0002335B007A681268134403F580631B8845
:102ECC00C3F30903A7F85030B7F85030002B2ED0BD
:102EDC007B6818687B6D59697B6D1A89B7F850301F
:102EEC0004F0D3FC23E07B681B68B3F850309BB232
:102EFC001A467B6D1B78DB00134406335B007A6843
:102F0C001268134403F580631B88C3F30903A7F805
:102F1C005030B7F85030002B09D07B6818687B6DA7
:102F2C0059697B6D5A89B7F8503004F0AEFC7B6D53
:102F3C00DA69B7F850301A447B6DDA617B6D5A69E7
:102F4C00B7F850301A447B6D5A617B6D9B69002B2E
:102F5C0005D0B7F850207B6D1B699A4206D27B6D69
:102F6C001B781946786806F075FA05E07B681B68D3
:102F7C00796D184602F054FFB7F84A3003F080031D
:102F8C00002B00F0238197F84D2013469B0013442F
:102F9C00DB0010337A6813447B657B681B681A4628
:102FAC0097F84D309B0013441B889BB223F4E143EC
:102FBC0023F07003A7F842307B681B681A4697F819
:102FCC004D309B001A44B7F842306FEA43436FEA26
:102FDC0053439BB213807B6DDB78012B40F0A280B6
:102FEC007B6D00229A617B6D1B7B002B00F0938024
:102FFC00B7F84A3003F04003002B46D07B6D5B786A
:10300C00002B26D17B681B687B627B681B68B3F83E
:10301C0050309BB21A467B6A13447B627B6D1B78E3
:10302C001A017B6A134403F204433B623B6A1B881C
:10303C009BB2C3F309039AB23B6A1A803B6A1B88A2
:10304C009BB26FEA43436FEA53439AB23B6A1A80CE
:10305C0061E07B6D5B78012B5DD17B681B68FB624B
:10306C007B681B68B3F850309BB21A46FB6A13445A
:10307C00FB627B6D1B781A01FB6A134403F2044359
:10308C00BB62BB6A00221A8045E07B681B68FB634D
:10309C007B6D5B78002B26D17B681B687B637B6820
:1030AC001B68B3F850309BB21A467B6B13447B639E
:1030BC007B6D1B781A017B6B134403F20C433B634F
:1030CC003B6B1B889BB2C3F309039AB23B6B1A8010
:1030DC003B6B1B889BB26FEA43436FEA53439AB234
:1030EC003B6B1A8017E07B6D5B78012B13D17B68EF
:1030FC001B68B3F850309BB21A46FB6B1344FB634E
:10310C007B6D1B781A01FB6B134403F20C43BB63FE
:10311C00BB6B00221A807B6D1B781946786806F011
:10312C00B4F953E0B7F84A3003F48073002B46D15E
:10313C007B681B68B3F850309BB21A467B6D1B78CA
:10314C00DB00134402335B007A681268134403F506
:10315C0080631B88C3F30903A7F840307B6D9A6921
:10316C00B7F840309A4207D97B6D9A69B7F840306E
:10317C00D21A7B6D9A6102E07B6D00229A617B6DA5
:10318C009B69002B06D17B6D1B781946786806F07D
:10319C007CF91BE07B6D5A69B7F840301A447B6DA3
:1031AC005A617B6DDA69B7F840301A447B6DDA618D
:1031BC007B681B68796D184602F032FE06E0B7F8A2
:1031CC004A301A46796D786800F01BF97B681B68E9
:1031DC00B3F844309BB21BB2002BFFF63BAC002380
:1031EC0018465837BD4680BD80B588B000AFF86032
:1031FC00B9601346FB80FB8803F48043002B7ED020
:10320C00FB681B68B3F850309BB21A46BB681B783E
:10321C00DB00134402335B00FA681268134403F5B5
:10322C0080631B88C3F309037B83BB689A697B8B20
:10323C009A4206D3BB689A697B8BD21ABB689A6197
:10324C0002E0BB6800229A61BB689B69002B23D10A
:10325C00FB681B681A46BB681B789B0013441B88D1
:10326C009BB223F4804323F070033B833B8B83F4AA
:10327C0000533B83FB681B681A46BB681B789B009A
:10328C001A443B8B43F07F4343F47F0343F40043E6
:10329C0043F080039BB21380FB8803F04003002BA8
:1032AC001FD0FB681B681A46BB681B789B00134435
:1032BC001B889BB223F4E04323F07003FB82FB6872
:1032CC001B681A46BB681B789B001A44FB8A43F0A8
:1032DC007F4343F47F0343F4004343F0C0039BB2AA
:1032EC0013807B8B002B00F08780FB681868BB6811
:1032FC005969BB681A897B8B04F0C7FA7CE0FB68C0
:10330C001B68B3F850309BB21A46BB681B78DB00C5
:10331C00134406335B00FA681268134403F58063A8
:10332C001B88C3F309037B83BB689A697B8B9A4226
:10333C0006D3BB689A697B8BD21ABB689A6102E090
:10334C00BB6800229A61BB689B69002B23D1FB6888
:10335C001B681A46BB681B789B0013441B889BB2E6
:10336C0023F4804323F07003FB83FB8B83F4005323
:10337C00FB83FB681B681A46BB681B789B001A44CE
:10338C00FB8B43F07F4343F47F0343F4004343F050
:10339C0080039BB21380FB8803F04003002B1FD1EA
:1033AC00FB681B681A46BB681B789B0013441B8880
:1033BC009BB223F4E04323F07003BB83FB681B68D0
:1033CC001A46BB681B789B001A44BB8B43F07F43A7
:1033DC0043F47F0343F4004343F0C0039BB21380D8
:1033EC007B8B002B08D0FB681868BB685969BB68DD
:1033FC005A897B8B04F049FA7B8B18462037BD46E3
:10340C0080BD80B5A4B000AFF860B9601346FB80F6
:10341C00FB8803F04003002B00F0DD81FB681B6888
:10342C00B3F850309BB21A46BB681B78DB001344D0
:10343C0002335B00FA681268134403F580631B883F
:10344C00C3F30903A7F88630BB689A69B7F88630CE
:10345C009A4207D9BB689A69B7F88630D21ABB680A
:10346C009A6102E0BB6800229A61BB689B69002BE1
:10347C0040F0B980BB685B78002B26D1FB681B68D9
:10348C00FB62FB681B68B3F850309BB21A46FB6AB0
:10349C001344FB62BB681B781A01FB6A134403F2EA
:1034AC000443BB62BB6A1B889BB2C3F309039AB289
:1034BC00BB6A1A80BB6A1B889BB26FEA43436FEAF4
:1034CC0053439AB2BB6A1A801AE0BB685B78012B33
:1034DC0016D1FB681B687B63FB681B68B3F8503024
:1034EC009BB21A467B6B13447B63BB681B781A0137
:1034FC007B6B134403F204433B633B6B00221A8047
:10350C00FB681B687B62BB685B78002B26D1FB6871
:10351C001B68FB61FB681B68B3F850309BB21A4602
:10352C00FB691344FB61BB681B781A01FB691344EC
:10353C0003F20C43BB61BB691B889BB2C3F3090349
:10354C009AB2BB691A80BB691B889BB26FEA434372
:10355C006FEA53439AB2BB691A8017E0BB685B7879
:10356C00012B13D1FB681B68B3F850309BB21A4681
:10357C007B6A13447B62BB681B781A017B6A134419
:10358C0003F20C433B623B6A00221A80BB681B7837
:10359C001946F86805F079FFFB8803F48043002B8B
:1035AC0000F0FC82FB681B681A46BB681B789B000A
:1035BC0013441B889BB223F4E04323F07003FB827B
:1035CC00FB681B681A46BB681B789B001A44FB8A75
:1035DC0043F07F4343F47F0343F4404343F08003C1
:1035EC009BB21380DAE2FB8803F48043002B21D0DA
:1035FC00FB681B681A46BB681B789B0013441B882E
:10360C009BB223F4E04323F07003A7F88A30FB68E5
:10361C001B681A46BB681B789B001A44B7F88A30A3
:10362C0043F07F4343F47F0343F4404343F0800370
:10363C009BB21380BB6893F82430012B40F0AE8210
:10364C00BB685A69B7F886301A44BB685A61BB68C4
:10365C00DA69B7F886301A44BB68DA61BB681A6A53
:10366C00BB681B699A420BD3BB681B69C7F88C30CB
:10367C00BB681A6AD7F88C30D21ABB681A6217E08A
:10368C00BB681B6A002B08D1B7F88630C7F88C30A2
:10369C00BB68002283F824200AE0BB68002283F870
:1036AC002420BB681B6AC7F88C30BB6800221A62E6
:1036BC00BB685B78002B65D1FB681B68FB63FB6800
:1036CC001B68B3F850309BB21A46FB6B1344FB6378
:1036DC00BB681B781A01FB6B134403F20443BB63F6
:1036EC00BB6B1B889BB2C3F309039AB2BB6B1A80EA
:1036FC00D7F88C303E2B1DD9D7F88C305B09BB64C6
:10370C00D7F88C3003F01F03002B02D1BB6C013BAC
:10371C00BB64BB6B1B889AB2BB6C9BB29B029BB20B
:10372C0013439BB26FEA43436FEA53439AB2BB6BAA
:10373C001A8044E0D7F88C30002B0AD1BB6B1B8865
:10374C009BB26FEA43436FEA53439AB2BB6B1A8046
:10375C0035E0D7F88C305B08BB64D7F88C3003F0BD
:10376C000103002B02D0BB6C0133BB64BB6B1B8809
:10377C009AB2BB6C9BB29B029BB213439AB2BB6BCB
:10378C001A801CE0BB685B78012B18D1FB681B68A6
:10379C007B64FB681B68B3F850309BB21A467B6C99
:1037AC0013447B64BB681B781A017B6C134403F2D3
:1037BC0004433B64D7F88C309AB23B6C1A80FB689C
:1037CC001868BB685969BB681A89D7F88C309BB2EA
:1037DC0004F015F8E2E1FB681B68B3F850309BB2BB
:1037EC001A46BB681B78DB00134406335B00FA688F
:1037FC001268134403F580631B88C3F30903A7F80D
:10380C008630BB689A69B7F886309A4207D3BB6892
:10381C009A69B7F88630D21ABB689A6102E0BB6825
:10382C0000229A61BB689B69002B40F0C080BB688A
:10383C005B78002B26D1FB681B68FB67FB681B6859
:10384C00B3F850309BB21A46FB6F1344FB67BB684E
:10385C001B781A01FB6F134403F20443BB67BB6F65
:10386C001B889BB2C3F309039AB2BB6F1A80BB6F60
:10387C001B889BB26FEA43436FEA53439AB2BB6F08
:10388C001A801AE0BB685B78012B16D1FB681B68A9
:10389C007B66FB681B68B3F850309BB21A467B6E94
:1038AC0013447B66BB681B781A017B6E134403F2CE
:1038BC0004433B663B6E00221A80FB681B687B67E7
:1038CC00BB685B78002B2BD1FB681B68FB66FB6825
:1038DC001B68B3F850309BB21A46FB6E1344FB6660
:1038EC00BB681B781A01FB6E134403F20C43C7F838
:1038FC008030D7F880301B889BB2C3F309039AB28F
:10390C00D7F880301A80D7F880301B889BB26FEACA
:10391C0043436FEA53439AB2D7F880301A8017E0CA
:10392C00BB685B78012B13D1FB681B68B3F8503074
:10393C009BB21A467B6F13447B67BB681B781A01DA
:10394C007B6F134403F20C433B673B6F00221A80DE
:10395C00BB681B781946F86805F097FDFB8803F4E3
:10396C008043002B40F01A81FB681B681A46BB6829
:10397C001B789B0013441B889BB223F4E04323F079
:10398C007003A7F88830FB681B681A46BB681B7865
:10399C009B001A44B7F8883043F07F4343F47F030D
:1039AC0043F4404343F080039BB21380F6E0FB8862
:1039BC0003F48043002B21D1FB681B681A46BB68BB
:1039CC001B789B0013441B889BB223F4E04323F029
:1039DC007003A7F84E30FB681B681A46BB681B784F
:1039EC009B001A44B7F84E3043F07F4343F47F03F7
:1039FC0043F4404343F080039BB21380BB6893F8BD
:103A0C002430012B40F0CA80BB685A69B7F8863065
:103A1C001A44BB685A61BB68DA69B7F886301A4435
:103A2C00BB68DA61BB681A6ABB681B699A420BD324
:103A3C00BB681B69C7F88C30BB681A6AD7F88C3026
:103A4C00D21ABB681A6217E0BB681B6A002B08D13C
:103A5C00B7F88630C7F88C30BB68002283F8242076
:103A6C000AE0BB681B6AC7F88C30BB6800221A627C
:103A7C00BB68002283F82420FB681B687B65BB684D
:103A8C005B78002B65D1FB681B68FB65FB681B68CA
:103A9C00B3F850309BB21A46FB6D1344FB65BB6800
:103AAC001B781A01FB6D134403F20C43BB65BB6D11
:103ABC001B889BB2C3F309039AB2BB6D1A80D7F86B
:103ACC008C303E2B1DD9D7F88C305B09BB66D7F8F0
:103ADC008C3003F01F03002B02D1BB6E013BBB6685
:103AEC00BB6D1B889AB2BB6E9BB29B029BB21343FD
:103AFC009BB26FEA43436FEA53439AB2BB6D1A8091
:103B0C0041E0D7F88C30002B0AD1BB6D1B889BB2DF
:103B1C006FEA43436FEA53439AB2BB6D1A8032E0AB
:103B2C00D7F88C305B08BB66D7F88C3003F00103F8
:103B3C00002B02D0BB6E0133BB66BB6D1B889AB2E7
:103B4C00BB6E9BB29B029BB213439AB2BB6D1A80A5
:103B5C0019E0BB685B78012B15D1FB681B68B3F8C7
:103B6C0050309BB21A467B6D13447B65BB681B7847
:103B7C001A017B6D134403F20C433B65D7F88C3070
:103B8C009AB23B6D1A80FB681868BB685969BB68B0
:103B9C005A89D7F88C309BB203F031FEFB681B6856
:103BAC001A46BB681B789B0013441B889BB223F4FA
:103BBC00E04323F04003BB82BB8A83F01003BB823B
:103BCC00BB8A83F02003BB82FB681B681A46BB6868
:103BDC001B789B001A44BB8A43F07F4343F47F035A
:103BEC0043F4004343F080039BB213800023184638
:103BFC009037BD4680BD80B487B000AFF8607B6065
:103C0C000B467B8113463B817B8903F080039BB27F
:103C1C00002B0BD07B8903F0070213469B00134447
:103C2C00DB001033FA6813447B6109E07A89134690
:103C3C009B001344DB0003F5A873FA6813447B6103
:103C4C003B89002B07D17B6900221A737B689AB2DF
:103C5C007B69DA800BE07B6901221A737B689AB26C
:103C6C007B691A817B681B0C9AB27B695A81002391
:103C7C0018461C37BD4680BC7047000080B586B026
:103C8C0000AF78607B68002B01D1012372E27B6866
:103C9C001B6803F00103002B00F08780924B5B68DC
:103CAC0003F00C03042B0CD08F4B5B6803F00C035C
:103CBC00082B12D18C4B5B6803F48033B3F5803F37
:103CCC000BD1894B1B6803F40033002B6CD07B6841
:103CDC005B68002B68D101234CE27B685B68B3F511
:103CEC00803F06D1804B1B687F4A43F480331360BE
:103CFC002EE07B685B68002B0CD17B4B1B687A4AEF
:103D0C0023F480331360784B1B68774A23F48023A9
:103D1C0013601DE07B685B68B3F5A02F0CD1724B70
:103D2C001B68714A43F4802313606F4B1B686E4A07
:103D3C0043F4803313600BE06B4B1B686A4A23F42B
:103D4C0080331360684B1B68674A23F4802313602D
:103D5C007B685B68002B13D0FDF79EF9386108E097
:103D6C00FDF79AF902463B69D31A642B01D9032358
:103D7C0000E25D4B1B6803F40033002BF0D014E021
:103D8C00FDF78AF9386108E0FDF786F902463B69D0
:103D9C00D31A642B01D90323ECE1534B1B6803F4B6
:103DAC000033002BF0D100E000BF7B681B6803F0F0
:103DBC000203002B63D04C4B5B6803F00C03002B0D
:103DCC000BD0494B5B6803F00C03082B1CD1464B02
:103DDC005B6803F48033002B16D1434B1B6803F054
:103DEC000203002B05D07B681B69012B01D001233A
:103DFC00C0E13D4B1B6823F0F8027B685B69DB007C
:103E0C00394913430B603AE07B681B69002B20D0C7
:103E1C00364B01221A60FDF73FF9386108E0FDF7D7
:103E2C003BF902463B69D31A022B01D90323A1E1CA
:103E3C002D4B1B6803F00203002BF0D02A4B1B68A0
:103E4C0023F0F8027B685B69DB00274913430B60A6
:103E5C0015E0264B00221A60FDF71EF9386108E0C8
:103E6C00FDF71AF902463B69D31A022B01D9032339
:103E7C0080E11D4B1B6803F00203002BF0D17B6823
:103E8C001B6803F00803002B3AD07B689B69002B5E
:103E9C0019D0174B01221A60FDF7FEF8386108E0C3
:103EAC00FDF7FAF802463B69D31A022B01D903231A
:103EBC0060E10D4B5B6A03F00203002BF0D0012094
:103ECC0000F09CFA1CE00A4B00221A60FDF7E4F8A3
:103EDC0038610FE0FDF7E0F802463B69D31A022B7C
:103EEC0008D9032346E100BF001002400000424203
:103EFC0080044242924B5B6A03F00203002BE9D12F
:103F0C007B681B6803F00403002B00F0A6800023E1
:103F1C00FB758B4BDB6903F08053002B0DD1884B69
:103F2C00DB69874A43F08053D361854BDB6903F02F
:103F3C008053BB60BB680123FB75824B1B6803F489
:103F4C008073002B18D17F4B1B687E4A43F480731F
:103F5C001360FDF7A1F8386108E0FDF79DF8024603
:103F6C003B69D31A642B01D9032303E1754B1B68FE
:103F7C0003F48073002BF0D07B68DB68012B06D137
:103F8C006F4B1B6A6E4A43F0010313622DE07B6892
:103F9C00DB68002B0CD16A4B1B6A694A23F00103C6
:103FAC001362674B1B6A664A23F0040313621CE01E
:103FBC007B68DB68052B0CD1614B1B6A604A43F0B4
:103FCC00040313625E4B1B6A5D4A43F001031362E8
:103FDC000BE05B4B1B6A5A4A23F001031362584BEC
:103FEC001B6A574A23F0040313627B68DB68002BBF
:103FFC0015D0FDF751F838610AE0FDF74DF802468F
:10400C003B69D31A41F28832934201D90323B1E0C0
:10401C004B4B1B6A03F00203002BEED014E0FDF7B0
:10402C003BF838610AE0FDF737F802463B69D31AD2
:10403C0041F28832934201D903239BE0404B1B6A27
:10404C0003F00203002BEED1FB7D012B05D13C4B81
:10405C00DB693B4A23F08053D3617B68DB69002B1F
:10406C0000F08780364B5B6803F00C03082B61D0A3
:10407C007B68DB69022B46D1334B00221A60FDF7BB
:10408C000BF8386108E0FDF707F802463B69D31AD4
:10409C00022B01D903236DE0294B1B6803F000733D
:1040AC00002BF0D17B681B6AB3F5803F08D1244B01
:1040BC005B6823F400327B689B68214913434B6097
:1040CC001F4B5B6823F474127B68196A7B685B6A0C
:1040DC000B431B4913434B601B4B01221A60FCF72B
:1040EC00DBFF386108E0FCF7D7FF02463B69D31AC7
:1040FC00022B01D903233DE0114B1B6803F0007325
:10410C00002BF0D035E0104B00221A60FCF7C4FFF6
:10411C00386108E0FCF7C0FF02463B69D31A022B5A
:10412C0001D9032326E0064B1B6803F00073002B18
:10413C00F0D11EE07B68DB69012B07D1012319E06C
:10414C000010024000700040600042420B4B5B6864
:10415C00FB60FB6803F480327B681B6A9A4206D1D1
:10416C00FB6803F470127B685B6A9A4201D00123EE
:10417C0000E0002318461837BD4680BD00100240F1
:10418C0080B584B000AF786039607B68002B01D1BA
:10419C000123D0E06A4B1B6803F007033A689A428C
:1041AC0010D9674B1B6823F0070265493B68134322
:1041BC000B60634B1B6803F007033A689A4201D00B
:1041CC000123B8E07B681B6803F00203002B20D0AE
:1041DC007B681B6803F00403002B05D0594B5B680C
:1041EC00584A43F4E06353607B681B6803F0080390
:1041FC00002B05D0534B5B68524A43F46053536019
:10420C00504B5B6823F0F0027B689B684D4913436D
:10421C004B607B681B6803F00103002B40D07B686C
:10422C005B68012B07D1474B1B6803F40033002B51
:10423C0015D101237FE07B685B68022B07D1414BD2
:10424C001B6803F00073002B09D1012373E03D4B75
:10425C001B6803F00203002B01D101236BE0394BE7
:10426C005B6823F003027B685B68364913434B6041
:10427C00FCF712FFF8600AE0FCF70EFF0246FB6841
:10428C00D31A41F28832934201D9032353E02D4BC8
:10429C005B6803F00C027B685B689B009A42EBD175
:1042AC00274B1B6803F007033A689A4210D2244B41
:1042BC001B6823F0070222493B6813430B60204B19
:1042CC001B6803F007033A689A4201D0012332E0DD
:1042DC007B681B6803F00403002B08D0194B5B6848
:1042EC0023F4E0627B68DB68164913434B607B6800
:1042FC001B6803F00803002B09D0124B5B6823F4F6
:10430C0060527B681B69DB000E4913434B6000F065
:10431C0021F802460B4B5B681B0903F00F030A499B
:10432C00CB5C22FA03F3094A1360094B1B6818464D
:10433C00FCF770FE002318461037BD4680BD00BF49
:10434C0000200240001002403CA3000800000020A6
:10435C000400002080B487B000AF0023FB60002372
:10436C00BB6000237B6100237B6000233B611E4B01
:10437C005B68FB60FB6803F00C03042B02D0082B7A
:10438C0003D027E0194B3B6127E0FB689B0C03F043
:10439C000F03174AD35C7B60FB6803F48033002B5C
:1043AC0010D0114B5B685B0C03F00103114AD35C1A
:1043BC00BB607B680D4A03FB02F2BB68B2FBF3F3F4
:1043CC007B6104E07B680C4A02FB03F37B617B6935
:1043DC003B6102E0054B3B6100BF3B6918461C3753
:1043EC00BD4680BC704700BF0010024000127A002E
:1043FC004CA300085CA3000800093D0080B485B004
:10440C0000AF78600A4B1B680A4AA2FB03235B0AC5
:10441C007A6802FB03F3FB6000BFFB685A1EFA606C
:10442C00002BF9D100BF00BF1437BD4680BC7047CC
:10443C0000000020D34D621080B586B000AF7860CC
:10444C0000233B610023FB607B681B6803F00103C6
:10445C00002B7DD00023FB754F4BDB6903F08053A1
:10446C00002B0DD14C4BDB694B4A43F08053D3618D
:10447C00494BDB6903F08053BB60BB680123FB75C0
:10448C00464B1B6803F48073002B18D1434B1B68FD
:10449C00424A43F480731360FCF7FEFD386108E078
:1044AC00FCF7FAFD02463B69D31A642B01D90323AE
:1044BC006DE03A4B1B6803F48073002BF0D0364B45
:1044CC001B6A03F44073FB60FB68002B2ED07B68E7
:1044DC005B6803F44073FA689A4227D02E4B1B6A30
:1044EC0023F44073FB602E4B01221A602C4B0022EC
:1044FC001A60294AFB681362FB6803F00103002B66
:10450C0014D0FCF7C9FD38610AE0FCF7C5FD024682
:10451C003B69D31A41F28832934201D9032336E026
:10452C001D4B1B6A03F00203002BEED01A4B1B6AC7
:10453C0023F440727B685B68174913430B62FB7D65
:10454C00012B05D1144BDB69134A23F08053D36143
:10455C007B681B6803F00203002B08D00E4B5B68D2
:10456C0023F440427B689B680B4913434B607B6888
:10457C001B6803F01003002B08D0074B5B6823F477
:10458C0080027B68DB68044913434B6000231846A8
:10459C001837BD4680BD00BF0010024000700040BF
:1045AC004004424280B582B000AF78607B68002B3B
:1045BC0001D1012341E07B6893F83D30DBB2002B45
:1045CC0006D17B68002283F83C207868FCF706FC57
:1045DC007B68022283F83D207B681A687B68043371
:1045EC001946104600F0FCFA7B68012283F846203D
:1045FC007B68012283F83E207B68012283F83F20F0
:10460C007B68012283F840207B68012283F84120DB
:10461C007B68012283F842207B68012283F84320C7
:10462C007B68012283F844207B68012283F84520B3
:10463C007B68012283F83D20002318460837BD46CD
:10464C0080BD000080B485B000AF78607B6893F8C3
:10465C003D30DBB2012B01D0012332E07B6802221A
:10466C0083F83D207B681B68184A93420ED07B6808
:10467C001B68B3F1804F09D07B681B68144A9342C6
:10468C0004D07B681B68134A934211D17B681B686A
:10469C009B6803F00703FB60FB68062B10D07B685C
:1046AC001B681A687B681B6842F001021A6007E0FD
:1046BC007B681B681A687B681B6842F001021A60F1
:1046CC00002318461437BD4680BC7047002C0140AF
:1046DC00000400400008004080B582B000AF786054
:1046EC007B68002B01D1012341E07B6893F83D30BE
:1046FC00DBB2002B06D17B68002283F83C20786863
:10470C0000F039F87B68022283F83D207B681A6838
:10471C007B6804331946104600F062FA7B6801226C
:10472C0083F846207B68012283F83E207B680122B7
:10473C0083F83F207B68012283F840207B680122AC
:10474C0083F841207B68012283F842207B68012298
:10475C0083F843207B68012283F844207B68012284
:10476C0083F845207B68012283F83D2000231846FE
:10477C000837BD4680BD80B483B000AF786000BF01
:10478C000C37BD4680BC704780B584B000AF7860F4
:10479C0039603B68002B09D17B6893F83E30DBB263
:1047AC00012B14BF01230023DBB222E03B68042B56
:1047BC0009D17B6893F83F30DBB2012B14BF012386
:1047CC000023DBB215E03B68082B09D17B6893F81A
:1047DC004030DBB2012B14BF01230023DBB208E015
:1047EC007B6893F84130DBB2012B14BF012300230B
:1047FC00DBB2002B01D001235EE03B68002B04D11F
:10480C007B68022283F83E2013E03B68042B04D122
:10481C007B68022283F83F200BE03B68082B04D115
:10482C007B68022283F8402003E07B68022283F835
:10483C0041207B681B6801223968184600F05CFC3B
:10484C007B681B681E4A934207D17B681B685A6CB5
:10485C007B681B6842F400425A647B681B68184AE8
:10486C0093420ED07B681B68B3F1804F09D07B68F4
:10487C001B68144A934204D07B681B68124A93420B
:10488C0011D17B681B689B6803F00703FB60FB6816
:10489C00062B10D07B681B681A687B681B6842F07B
:1048AC0001021A6007E07B681B681A687B681B684A
:1048BC0042F001021A60002318461037BD4680BD35
:1048CC00002C0140000400400008004080B586B078
:1048DC0000AFF860B9607A600023FB75FB6893F851
:1048EC003C30012B01D10223AEE0FB68012283F89E
:1048FC003C207B680C2B00F29F8001A252F823F025
:10490C0041490008454A0008454A0008454A000844
:10491C0081490008454A0008454A0008454A0008F4
:10492C00C3490008454A0008454A0008454A0008A2
:10493C00034A0008FB681B68B968184600F0BEF90A
:10494C00FB681B689A69FB681B6842F008029A6155
:10495C00FB681B689A69FB681B6822F004029A6169
:10496C00FB681B689969BB681A69FB681B680A437A
:10497C009A6164E0FB681B68B968184600F004FA99
:10498C00FB681B689A69FB681B6842F400629A61B9
:10499C00FB681B689A69FB681B6822F480629A6149
:1049AC00FB681B689969BB681B691A02FB681B686A
:1049BC000A439A6143E0FB681B68B968184600F02B
:1049CC004DFAFB681B68DA69FB681B6842F0080249
:1049DC00DA61FB681B68DA69FB681B6822F0040269
:1049EC00DA61FB681B68D969BB681A69FB681B68CC
:1049FC000A43DA6123E0FB681B68B968184600F0CB
:104A0C0097FAFB681B68DA69FB681B6842F4006262
:104A1C00DA61FB681B68DA69FB681B6822F4806248
:104A2C00DA61FB681B68D969BB681B691A02FB68F1
:104A3C001B680A43DA6102E00123FB7500BFFB68C7
:104A4C00002283F83C20FB7D18461837BD4680BDFC
:104A5C0080B584B000AF786039600023FB737B684D
:104A6C0093F83C30012B01D10223B4E07B68012286
:104A7C0083F83C207B68022283F83D207B681B680E
:104A8C009B68BB60BB6823F07703BB60BB6823F4F7
:104A9C007F43BB607B681B68BA689A603B681B6885
:104AAC00B3F5005F3ED0B3F5005F00F28780B3F53D
:104ABC00805F00F08680B3F5805F7FD8702B1AD0B2
:104ACC00702B7BD8602B50D0602B77D8502B3CD0E0
:104ADC00502B73D8402B58D0402B6FD8302B64D030
:104AEC00302B6BD8202B60D0202B67D8002B5CD0C0
:104AFC00102B5AD062E07B6818683B6899683B6859
:104B0C005A683B68DB6800F0D8FA7B681B689B68C6
:104B1C00BB60BB6843F07703BB607B681B68BA68FB
:104B2C009A604FE07B6818683B6899683B685A68E4
:104B3C003B68DB6800F0C1FA7B681B689A687B688D
:104B4C001B6842F480429A603CE07B6818683B68C2
:104B5C0059683B68DB681A4600F038FA7B681B68BA
:104B6C005021184600F08FFA2CE07B6818683B68DF
:104B7C0059683B68DB681A4600F056FA7B681B687C
:104B8C006021184600F07FFA1CE07B6818683B68CF
:104B9C0059683B68DB681A4600F018FA7B681B689A
:104BAC004021184600F06FFA0CE07B681A683B68ED
:104BBC001B681946104600F066FA03E00123FB73EC
:104BCC0000E000BF7B68012283F83D207B68002257
:104BDC0083F83C20FB7B18461037BD4680BD000097
:104BEC0080B485B000AF786039607B681B68FB606F
:104BFC007B682F4A93420BD07B68B3F1804F07D070
:104C0C007B682C4A934203D07B682B4A934208D191
:104C1C00FB6823F07003FB603B685B68FA68134326
:104C2C00FB607B68224A93420BD07B68B3F1804FC8
:104C3C0007D07B681F4A934203D07B681E4A93427D
:104C4C0008D1FB6823F44073FB603B68DB68FA68AF
:104C5C001343FB60FB6823F080023B685B691343E2
:104C6C00FB607B68FA681A603B689A687B68DA625A
:104C7C003B681A687B689A627B680D4A934203D141
:104C8C003B681A697B681A637B6801225A617B68EE
:104C9C001B6903F00103002B05D07B681B6923F013
:104CAC0001027B681A6100BF1437BD4680BC704797
:104CBC00002C0140000400400008004080B487B084
:104CCC0000AF786039607B681B6A7B617B681B6A0C
:104CDC0023F001027B681A627B685B683B617B682E
:104CEC009B69FB60FB6823F07003FB60FB6823F09F
:104CFC000303FB603B681B68FA681343FB607B692A
:104D0C0023F002037B613B689B687A6913437B61E8
:104D1C007B681C4A93420CD17B6923F008037B61AE
:104D2C003B68DB687A6913437B617B6923F004037E
:104D3C007B617B68134A934211D13B6923F48073E6
:104D4C003B613B6923F400733B613B685B693A69E7
:104D5C0013433B613B689B693A6913433B617B6836
:104D6C003A695A607B68FA689A613B685A687B6852
:104D7C005A637B687A691A6200BF1C37BD4680BCD7
:104D8C00704700BF002C014080B487B000AF786042
:104D9C0039607B681B6A7B617B681B6A23F010029D
:104DAC007B681A627B685B683B617B689B69FB6014
:104DBC00FB6823F4E043FB60FB6823F44073FB6067
:104DCC003B681B681B02FA681343FB607B6923F08A
:104DDC0020037B613B689B681B017A6913437B61F1
:104DEC007B681D4A93420DD17B6923F080037B6164
:104DFC003B68DB681B017A6913437B617B6923F099
:104E0C0040037B617B68144A934213D13B6923F4C2
:104E1C0080633B613B6923F400633B613B685B69E6
:104E2C009B003A6913433B613B689B699B003A6961
:104E3C0013433B617B683A695A607B68FA689A61F4
:104E4C003B685A687B689A637B687A691A6200BF10
:104E5C001C37BD4680BC7047002C014080B487B025
:104E6C0000AF786039607B681B6A7B617B681B6A6A
:104E7C0023F480727B681A627B685B683B617B6899
:104E8C00DB69FB60FB6823F07003FB60FB6823F0BD
:104E9C000303FB603B681B68FA681343FB607B6988
:104EAC0023F400737B613B689B681B027A69134394
:104EBC007B617B681D4A93420DD17B6923F40063AF
:104ECC007B613B68DB681B027A6913437B617B69FE
:104EDC0023F480637B617B68144A934213D13B6952
:104EEC0023F480533B613B6923F400533B613B68E3
:104EFC005B691B013A6913433B613B689B691B016E
:104F0C003A6913433B617B683A695A607B68FA687B
:104F1C00DA613B685A687B68DA637B687A691A6283
:104F2C0000BF1C37BD4680BC704700BF002C014041
:104F3C0080B487B000AF786039607B681B6A3B61D6
:104F4C007B681B6A23F480527B681A627B685B68FF
:104F5C007B617B68DB69FB60FB6823F4E043FB60EF
:104F6C00FB6823F44073FB603B681B681B02FA6808
:104F7C001343FB603B6923F400533B613B689B6824
:104F8C001B033A6913433B617B680F4A934209D177
:104F9C007B6923F480437B613B685B699B017A6985
:104FAC0013437B617B687A695A607B68FA68DA61C3
:104FBC003B685A687B681A647B683A691A6200BF5E
:104FCC001C37BD4680BC7047002C014080B487B0B4
:104FDC0000AFF860B9607A60FB681B6A7B61FB68A4
:104FEC001B6A23F00102FB681A62FB689B693B6138
:104FFC003B6923F0F0033B617B681B013A69134367
:10500C003B617B6923F00A037B617A69BB681343BC
:10501C007B61FB683A699A61FB687A691A6200BF26
:10502C001C37BD4680BC704780B487B000AFF860B9
:10503C00B9607A60FB681B6A7B61FB681B6A23F0B2
:10504C001002FB681A62FB689B693B613B6923F4A5
:10505C0070433B617B681B033A6913433B617B697B
:10506C0023F0A0037B61BB681B017A6913437B614E
:10507C00FB683A699A61FB687A691A6200BF1C374F
:10508C00BD4680BC704780B485B000AF7860396095
:10509C007B689B68FB60FB6823F07003FB603A68DD
:1050AC00FB68134343F00703FB607B68FA689A6064
:1050BC0000BF1437BD4680BC704780B487B000AFCA
:1050CC00F860B9607A603B60FB689B687B617B69C8
:1050DC0023F47F437B613B681A027B681A43BB68ED
:1050EC0013437A6913437B61FB687A699A6000BF4A
:1050FC001C37BD4680BC704780B487B000AFF860E9
:10510C00B9607A60BB6803F01F03012202FA03F353
:10511C007B61FB681A6A7B69DB431A40FB681A6285
:10512C00FB681A6ABB6803F01F03796801FA03F382
:10513C001A43FB681A6200BF1C37BD4680BC70471F
:10514C0080B485B000AF786039607B6893F83C30F0
:10515C00012B01D1022346E07B68012283F83C201D
:10516C007B68022283F83D207B681B685B68FB60D0
:10517C007B681B689B68BB60FB6823F07003FB605B
:10518C003B681B68FA681343FB607B681B68FA6812
:10519C005A607B681B68164A93420ED07B681B686A
:1051AC00B3F1804F09D07B681B68124A934204D03C
:1051BC007B681B68104A93420CD1BB6823F08003B8
:1051CC00BB603B685B68BA681343BB607B681B6859
:1051DC00BA689A607B68012283F83D207B680022C4
:1051EC0083F83C20002318461437BD4680BC70471A
:1051FC00002C0140000400400008004080B485B041
:10520C0000AFF860384680E80E00002318461437CB
:10521C00BD4680BC704780B485B000AF78607B68B9
:10522C000022A3F844204FF43F43FB60FB689AB282
:10523C007B68A3F84020002318461437BD4680BC79
:10524C00704780B485B000AF78604FF43F43FB608B
:10525C007B68B3F840309AB2FB689BB2DB439BB2DD
:10526C0013409AB27B68A3F84020002318461437E9
:10527C00BD4680BC704780B483B000AF78600B46ED
:10528C00FB70002318460C37BD4680BC704780B4B9
:10529C0085B000AFF860384680E80E00FB6801224C
:1052AC00A3F84020FB680022A3F84020FB680022F2
:1052BC00A3F84420FB680022A3F8502000231846D2
:1052CC001437BD4680BC704780B49DB000AF786089
:1052DC003960002387F86F307A683B681B789B0035
:1052EC0013441B889BB223F4EC4323F07003A7F800
:1052FC006C303B68DB78032B1FD801A252F823F0EB
:10530C001D530008395300084F5300082B53000855
:10531C00B7F86C3043F40073A7F86C3012E0B7F8B0
:10532C006C3043F4C063A7F86C300BE0B7F86C300A
:10533C0043F48063A7F86C3004E0012387F86F30E6
:10534C0000E000BF7A683B681B789B001A44B7F8F2
:10535C006C3043F07F4343F47F0343F4004343F04A
:10536C0080039BB213807A683B681B789B001344C4
:10537C001B889BB223F4E04323F070039BB23A6882
:10538C0012781343A7F866307A683B681B789B0049
:10539C001A44B7F8663043F07F4343F47F0343F479
:1053AC00004343F080039BB213803B681B7B002BB4
:1053BC0040F078813B685B78002B00F084807B6840
:1053CC00BB617B68B3F850309BB21A46BB6913447F
:1053DC00BB613B681B781A01BB69134403F58063FE
:1053EC007B613B68DB885B089BB25B009AB27B6994
:1053FC001A807A683B681B789B0013441B887B825D
:10540C007B8A03F04003002B1BD07A683B681B7827
:10541C009B0013441B889BB223F4E04323F07003DE
:10542C003B827A683B681B789B001A443B8A43F0AA
:10543C007F4343F47F0343F4004343F0C0039BB228
:10544C0013803B68DB78012B20D07A683B681B7893
:10545C009B0013441B889BB223F4E04323F04003CE
:10546C00BB81BB8983F02003BB817A683B681B78C6
:10547C009B001A44BB8943F07F4343F47F0343F4FE
:10548C00004343F080039BB21380D5E27A683B68FB
:10549C001B789B0013441B889BB223F4E04323F03E
:1054AC004003FB817A683B681B789B001A44FB899C
:1054BC0043F07F4343F47F0343F4004343F0800302
:1054CC009BB21380B8E27B683B637B68B3F85030C7
:1054DC009BB21A463B6B13443B633B681B781A0127
:1054EC003B6B134403F58163FB623B68DB885B0811
:1054FC009BB25B009AB2FB6A1A807B68BB627B68CA
:10550C00B3F850309BB21A46BB6A1344BB623B687B
:10551C001B781A01BB6A134403F20C437B627B6A4F
:10552C001B889BB2C3F309039AB27B6A1A803B684F
:10553C001B693E2B1DD93B681B695B09BB663B682D
:10554C001B6903F01F03002B02D1BB6E013BBB6632
:10555C007B6A1B889AB2BB6E9BB29B029BB21343B5
:10556C009BB26FEA43436FEA53439AB27B6A1A8049
:10557C0026E03B681B69002B0AD17B6A1B889BB217
:10558C006FEA43436FEA53439AB27B6A1A8017E07F
:10559C003B681B695B08BB663B681B6903F0010336
:1055AC00002B02D0BB6E0133BB667B6A1B889AB2A0
:1055BC00BB6E9BB29B029BB213439AB27B6A1A805E
:1055CC007A683B681B789B0013441B887B847B8C1C
:1055DC0003F48043002B1BD07A683B681B789B003C
:1055EC0013441B889BB223F4E04323F070033B84E9
:1055FC007A683B681B789B001A443B8C43F07F43D2
:10560C0043F47F0343F4404343F080039BB2138085
:10561C003B681B78002B24D17A683B681B789B0075
:10562C0013441B889BB223F4804323F07003BB8389
:10563C00BB8B83F48053BB83BB8B83F40053BB8342
:10564C007A683B681B789B001A44BB8B43F07F4302
:10565C0043F47F0343F4004343F080039BB2138075
:10566C00EAE17A683B681B789B0013441B889BB269
:10567C0023F4804323F07003FB83FB8B83F40053F0
:10568C00FB837A683B681B789B001A44FB8B43F0C6
:10569C007F4343F47F0343F4004343F080039BB206
:1056AC001380C9E13B68DB78022B1ED17A683B681A
:1056BC001B789B0013441B889BB223F4E04323F01C
:1056CC007003A7F862307A683B681B789B001A4419
:1056DC00B7F8623043F07F4343F47F0343F4014354
:1056EC0043F080039BB213801DE07A683B681B7803
:1056FC009B0013441B889BB223F4E24323F07003FA
:10570C00A7F864307A683B681B789B001A44B7F89A
:10571C00643043F07F4343F47F0343F4004343F08E
:10572C0080039BB213807B68FB657B68B3F85030B9
:10573C009BB21A46FB6D1344FB653B681B781A0140
:10574C00FB6D134403F58063BB653B681B895B08E9
:10575C009BB25B009AB2BB6D1A807B687B657B68E1
:10576C00B3F850309BB21A467B6D13447B653B6893
:10577C001B781A017B6D134403F581633B653B6811
:10578C005B895B089BB25B009AB23B6D1A803B68ED
:10579C005B78002B40F093807A683B681B789B0009
:1057AC0013441B88A7F84030B7F8403003F480430B
:1057BC00002B1BD07A683B681B789B0013441B881A
:1057CC009BB223F4E04323F07003FB877A683B68B9
:1057DC001B789B001A44FB8F43F07F4343F47F03F9
:1057EC0043F4404343F080039BB213807A683B68D8
:1057FC001B789B0013441B88BB87BB8F03F04003B3
:10580C00002B1BD07A683B681B789B0013441B88C9
:10581C009BB223F4E04323F070037B877A683B68E8
:10582C001B789B001A447B8F43F07F4343F47F0328
:10583C0043F4004343F0C0039BB213807A683B6887
:10584C001B789B0013441B889BB223F4804323F0EA
:10585C0070033B873B8F83F480533B873B8F83F4F0
:10586C0000533B877A683B681B789B001A443B8F3C
:10587C0043F07F4343F47F0343F4004343F080033E
:10588C009BB213807A683B681B789B0013441B887F
:10589C009BB223F4E04323F04003FB867A683B6819
:1058AC001B789B001A44FB8E43F07F4343F47F0329
:1058BC0043F4004343F080039BB21380BCE07A684E
:1058CC003B681B789B0013441B88A7F84E30B7F835
:1058DC004E3003F48043002B1DD07A683B681B7854
:1058EC009B0013441B889BB223F4E04323F070030A
:1058FC00A7F84C307A683B681B789B001A44B7F8C1
:10590C004C3043F07F4343F47F0343F4404343F074
:10591C0080039BB213807A683B681B789B0013440E
:10592C001B88A7F84A30B7F84A3003F04003002B25
:10593C001DD07A683B681B789B0013441B889BB274
:10594C0023F4E04323F07003A7F848307A683B68EF
:10595C001B789B001A44B7F8483043F07F4343F45C
:10596C007F0343F4004343F0C0039BB213803B68B6
:10597C00DB78012B24D07A683B681B789B0013449E
:10598C001B889BB223F4E04323F04003A7F8443078
:10599C00B7F8443083F02003A7F844307A683B68AA
:1059AC001B789B001A44B7F8443043F07F4343F410
:1059BC007F0343F4004343F080039BB213801DE04C
:1059CC007A683B681B789B0013441B889BB223F4BA
:1059DC00E04323F04003A7F846307A683B681B7815
:1059EC009B001A44B7F8463043F07F4343F47F03DF
:1059FC0043F4004343F080039BB213807A683B6806
:105A0C001B789B0013441B889BB223F4804323F028
:105A1C007003A7F842307A683B681B789B001A44E5
:105A2C00B7F8423043F07F4343F47F0343F4004321
:105A3C0043F080039BB2138097F86F30184674378D
:105A4C00BD4680BC704700BF80B48DB000AF78609D
:105A5C0039603B681B7B002B40F08E803B685B7889
:105A6C00002B44D07A683B681B789B0013441B883E
:105A7C00BB81BB8903F04003002B1BD07A683B68C9
:105A8C001B789B0013441B889BB223F4E04323F048
:105A9C0070037B817A683B681B789B001A447B8976
:105AAC0043F07F4343F47F0343F4004343F0C003CC
:105ABC009BB213807A683B681B789B0013441B884D
:105ACC009BB223F4E04323F040033B817A683B68AC
