:020000040800F2
:10000000005000205D0F0008650E00086D0E00080E
:10001000750E00087D0E0008850E00080000000027
:100020000000000000000000000000008D0E00082D
:10003000990E000800000000A50E0008B10E00088F
:10004000A50F0008A50F0008A50F0008A50F0008C0
:10005000A50F0008A50F0008A50F0008A50F0008B0
:10006000A50F0008A50F0008A50F0008BD0E000889
:10007000A50F0008A50F0008A50F0008A50F000890
:10008000A50F0008A50F0008A50F0008A50F000880
:10009000D10E0008A50F0008A50F0008A50F000845
:1000A000A50F0008A50F0008A50F0008A50F000860
:1000B000A50F0008A50F0008A50F0008A50F000850
:1000C000A50F0008A50F0008A50F0008A50F000840
:1000D000A50F0008A50F0008A50F0008A50F000830
:1000E000A50F0008A50F0008A50F000800000000DC
:1000F0000000000000000000000000000000000000
:0C01000000000000000000005FF808F1A3
:10010C0010B5054C237833B9044B13B10448AFF345
:10011C0000800123237010BDD001002000000000DE
:10012C00E8A8000808B5034B1BB103490348AFF31B
:10013C00008008BD00000000D4010020E8A80008E1
:10014C0080B483B000AF0B4BD3F8B8327B607B68C4
:10015C00002B01D1002307E07B68D3F81432002B6D
:10016C000CBF01230023DBB218460C37BD4680BC04
:10017C00704700BF482B002080B5A2B000AF00F044
:10018C000DFF00F0C9FA00F093FC00F073FC00F0D6
:10019C0021FB09F08FF900F06BFB00F0A7FB00F0DE
:1001AC00F1FBB54801F01CFBB44801F019FBB34856
:1001BC0001F052F8002387F88730002387F8863047
:1001CC00002387F88530002387F88430002387F8D4
:1001DC005530002387F883300023FB674FF6FF73FD
:1001EC00A7F87A300021A64804F028FDA54804F0B1
:1001FC005DFC4FF40062A4499F4801F09FFBA34BA8
:10020C001B685B68C3F50063A14A13604FF400716F
:10021C00A04802F01BF90346002B0CBF012300235E
:10022C0087F8553000F012FF38653A6DFB6FD31A22
:10023C00322B40F2D280974B9B68A7F84E30B7F820
:10024C004E3003F48063002B17D1B7F87A3003F4E7
:10025C008063002B11D097F88730002B14BF01233B
:10026C000023DBB283F00103DBB287F8873097F809
:10027C00873003F0010387F88730B7F84E3003F46A
:10028C000063002B17D1B7F87A3003F40063002B0E
:10029C0011D097F88630002B14BF01230023DBB25A
:1002AC0083F00103DBB287F8863097F8863003F0D1
:1002BC00010387F88630B7F84E3003F48053002BD7
:1002CC0055D1B7F87A3003F48053002B4FD040F659
:1002DC00FF73A7F878300023A7F8763000233B672C
:1002EC001FE0694A3B6F52F823309BB2C3F30B03F8
:1002FC00A7F84630B7F84620B7F878309A4203D2C0
:10030C00B7F84630A7F87830B7F84620B7F876300B
:10031C009A4203D9B7F84630A7F876303B6F0133D1
:10032C003B673B6FB3F5007FDBDBB7F87820B7F8A2
:10033C0076301344DA0F13445B109AB2564B1A8082
:10034C00FFF7FEFE0346002B11D0534B1B881A46B9
:10035C0007F108035149184609F008FEB864BB6C54
:10036C009AB207F108031146184609F099F9B7F843
:10037C004E3003F48043002B17D1B7F87A3003F4D6
:10038C008043002B11D097F88530002B14BF01232C
:10039C000023DBB283F00103DBB287F8853097F8DA
:1003AC00853003F0010387F88530B7F94E30002B08
:1003BC000DDBB7F97A30002B09DA97F88530002B72
:1003CC0005D0012387F88430002387F88530B7F8EF
:1003DC004E30A7F87A303B6DFB6797F88530002BD1
:1003EC000AD097F8843083F00103DBB2002B03D0E2
:1003FC000A2000F035FE7CE1244B1B685B68C3F5DA
:10040C0000633B640023FB660023BB669623FB63FF
:10041C006FE01F4B1B681C4A52F82330BB63BB6B4D
:10042C009BB2C3F30B03FB8697F8873083F0010371
:10043C00DBB2002B34D0FA8E174B1B881946FB6BA2
:10044C00CB1A9A4202DA012387F8833097F883306B
:10045C00002B44D0FA8E104B1B881946FB6B0B44B7
:10046C009A423CDB0123FB66094B1B68BB660023ED
:10047C0087F8833033E000BFEC0100201C02002021
:10048C00D802002090020020200300204C02002003
:10049C00302B0020000C01400000002000A90008B7
:1004AC00FA8E944B1B881946FB6B0B449A4202DD67
:1004BC00012387F8833097F88330002B0FD0FA8E06
:1004CC008C4B1B881946FB6BCB1A9A4207DC012319
:1004DC00FB66894B1B68BB66002387F88330874A11
:1004EC00FB8E1380844B1B680133C3F30A03824ACF
:1004FC001360814B1B683A6C9A4202D0FB6E002B46
:10050C0087D0FB6E002B12D197F8863083F0010355
:10051C00DBB2002B0BD000F099FD0246784B1B6828
:10052C00D31A322B03D90123FB663B6CBB66FB6EE3
:10053C00002B3FF46BAE00F089FD0346704A13604C
:10054C004FF400733B636F4B1B685B68C3F5006330
:10055C00FB62FA6ABB6E9A4203D3FA6ABB6ED31A79
:10056C0004E0FA6ABB6ED31A03F50063BB62BB6A84
:10057C003A6B9A4200D9E6E700BF4FF4005162484B
:10058C0001F064FF0346002B0CBF01230023DBB2F8
:10059C007B62BB6E7B6600233B663B6E5A1C3A66E5
:1005AC005A4AAA21D1543B6E5A1C3A66574ABB216F
:1005BC00D1543B6E5A1C3A66544ACC21D1543B6EF2
:1005CC005A1C3A66514ADD21D1540023FB656BE07D
:1005DC004F4A7B6E52F823303B623B6A9BB2C3F3AB
:1005EC000B039BB2BB803B6A1B0C9BB2C3F30B038C
:1005FC009BB2FB800023BB654BE0BB6D5B0088337B
:10060C003B4433F8843CFB61FB6940F6E44202FB5B
:10061C0003F3404A82FB03121A44D212DB17D31A9B
:10062C00BB617B6A002B08D0BB69A3F5C8639BB286
:10063C005B009BB2A7F8563009E0BB699BB203F58F
:10064C00F94360339BB25B009BB2A7F8563097F826
:10065C005530002B08D0B7F856301A469200134488
:10066C005B009BB2A7F856303B6E5A1C3A66B7F843
:10067C005620D1B2254AD154B7F956301B1219B2B3
:10068C003B6E5A1C3A66C9B2204AD154BB6D013339
:10069C00BB65BB6D012BB0DD7B6E0133C3F30A036D
:1006AC007B66FB6D0133FB65FB6D3A6B9A428FD811
:1006BC00FFF746FD0346002B05D03B6E9BB2194657
:1006CC00124808F0EDFF97F88430002B05D000237A
:1006DC0087F88430012387F88530012000F0C0FCB6
:1006EC00084B1B685B68C3F50063C3F30A03024A3B
:1006FC0013608BE500000020302B0020342B0020F1
:10070C00382B00204C020020000C0140202300203C
:10071C00200300208100088080B594B000AF07F161
:10072C00280328220021184609F042FC07F1140383
:10073C0000221A605A609A60DA601A613B1D00222E
:10074C001A605A609A60DA600123BB624FF48033FE
:10075C00FB6200233B630123BB6302237B644FF4E6
:10076C008033BB644FF4E013FB6407F12803184695
:10077C0003F0E4FB0346002B01D000F03DFA0F23FD
:10078C007B610223BB610023FB614FF480633B62FE
:10079C0000237B6207F114030221184603F050FE7C
:1007AC000346002B01D000F027FA12237B604FF494
:1007BC000043FB6000233B613B1D184603F0BAFF6E
:1007CC000346002B01D000F017FA00BF5037BD468E
:1007DC0080BD000080B584B000AF0023FB603B46B9
:1007EC0000221A605A609A601F4B204A1A601E4BF6
:1007FC0000229A601C4B00221A731B4B00221A75A4
:10080C00194B4FF40022DA61174B00225A60164B39
:10081C0001221A61144800F047FC0346002B01D05A
:10082C0000F0EAF94FF4E023FB6007F10C031946E2
:10083C000D4801F039F90346002B01D000F0DCF92A
:10084C0000233B6001237B600023BB603B461946C1
:10085C00054800F0CBFD0346002B01D000F0CCF98D
:10086C0000BF1037BD4680BDEC01002000240140C4
:10087C0080B584B000AF3B1D00221A605A609A60AC
:10088C00184B194A1A60174B00229A60154B00221C
:10089C001A73144B00221A75124B4FF46022DA6152
:1008AC00104B00225A600F4B01221A610D4800F0C8
:1008BC00FBFB0346002B01D000F09EF900237B606C
:1008CC000123BB600023FB603B1D1946054800F06B
:1008DC008DFD0346002B01D000F08EF900BF1037C0
:1008EC00BD4680BD1C0200200028014080B586B0AA
:1008FC0000AF07F1080300221A605A609A60DA60B0
:10090C003B4600221A605A601C4B1D4A1A601B4B56
:10091C0000225A60194B00229A60184B5322DA605D
:10092C00164B00221A61154B00229A61134804F0F1
:10093C006DF80346002B01D000F05EF94FF48053A4
:10094C00BB6007F1080319460C4804F0DBFA0346B8
:10095C00002B01D000F050F920233B6000237B607A
:10096C003B461946054804F045FE0346002B01D0D2
:10097C0000F042F900BF1837BD4680BD9002002040
:10098C000004004080B58EB000AF07F128030022B0
:10099C001A605A609A60DA6007F1200300221A602C
:1009AC005A603B1D00221A605A609A60DA601A6124
:1009BC005A619A612D4B2E4A1A602C4B47225A6071
:1009CC002A4B00229A60294B40F2E732DA60274B1F
:1009DC0000221A61254B00229A61244804F016F873
:1009EC000346002B01D000F007F94FF48053BB6293
:1009FC0007F1280319461D4804F084FA0346002B1E
:100A0C0001D000F0F9F8194804F0C0F80346002BA7
:100A1C0001D000F0F1F800233B6200237B6207F168
:100A2C0020031946114804F0E5FD0346002B01D0C4
:100A3C0000F0E2F860237B604FF4FA73BB60002394
:100A4C00FB6000237B613B1D00221946074804F024
:100A5C0097F90346002B01D000F0CEF8034800F0C4
:100A6C00C9F900BF3837BD4680BD00BFD802002091
:100A7C000008004080B582B000AF0C4B5B690B4A9C
:100A8C0043F001035361094B5B6903F001037B6085
:100A9C007B68002200210B2001F02FF90B2001F0C4
:100AAC0048F900BF0837BD4680BD00BF00100240AA
:100ABC0080B588B000AF07F1100300221A605A60AD
:100ACC009A60DA601A4B9B69194A43F020039361D0
:100ADC00174B9B6903F02003FB60FB68144B9B696D
:100AEC00134A43F004039361114B9B6903F0040315
:100AFC00BB60BB680E4B9B690D4A43F008039361C6
:100B0C000B4B9B6903F008037B607B684FF47E43BF
:100B1C003B6100237B610123BB6107F11003194684
:100B2C00044801F00FFB00BF2037BD4680BD00BF5D
:100B3C0000100240000C014080B483B000AF0346AB
:100B4C00FB80FB88B3F5805F02D340F6FF73FB801C
:100B5C00034AFB88138000BF0C37BD4680BC70472E
:100B6C000000002080B582B000AF0346FB71204826
:100B7C0003F0E6FFFB79032B28D801A252F823F0EF
:100B8C009D0B0008AB0B0008BB0B0008C90B000841
:100B9C00184B00229A62174B5322DA621DE0154B58
:100BAC0000229A62134B40F24732DA6215E0114B85
:100BBC0031229A620F4B5322DA620EE00D4B40F257
:100BCC00F3129A620B4B5322DA6206E0094B0022B5
:100BDC009A62084B5322DA6200BF064B00225A621B
:100BEC00034803F063FF00BF0837BD4680BD00BF5C
:100BFC00900200200004004080B400AF72B600BF29
:100C0C0000BFFDE780B485B000AF154B9B69144A5B
:100C1C0043F001039361124B9B6903F00103BB602A
:100C2C00BB680F4BDB690E4A43F08053D3610C4B0E
:100C3C00DB6903F080537B607B680A4B5B68FB606D
:100C4C00FB6823F0E063FB60FB6843F00073FB6020
:100C5C00044AFB68536000BF1437BD4680BC704724
:100C6C00001002400000014080B58AB000AF7860EF
:100C7C0007F1180300221A605A609A60DA607B68E8
:100C8C001B683D4A93424BD13C4B9B693B4A43F416
:100C9C0000739361394B9B6903F400737B617B692F
:100CAC00364B9B69354A43F004039361334B9B6984
:100CBC0003F004033B613B690123BB610323FB612C
:100CCC0007F1180319462E4801F03CFA2D4B2E4A19
:100CDC001A602C4B00225A602A4B00229A60294B36
:100CEC008022DA60274B4FF400721A61254B4FF4C7
:100CFC0000625A61234B20229A61224B4FF400521E
:100D0C00DA61204801F030F80346002B01D0FFF7E0
:100D1C0073FF7B681B4A1A621A4A7B68536226E08F
:100D2C007B681B68194A934221D1144B9B69134A67
:100D3C0043F480639361114B9B6903F48063FB6004
:100D4C00FB680E4B9B690D4A43F0040393610B4BFC
:100D5C009B6903F00403BB60BB680123BB610323E5
:100D6C00FB6107F118031946054801F0EBF900BFC8
:100D7C002837BD4680BD00BF002401400010024052
:100D8C00000801404C0200200800024000280140ED
:100D9C0080B485B000AF78607B681B68124A9342C0
:100DAC000CD1124BDB69114A43F00203D3610F4B98
:100DBC00DB6903F00203FB60FB6810E07B681B68D7
:100DCC000B4A93420BD1094BDB69084A43F00403ED
:100DDC00D361064BDB6903F00403BB60BB6800BF47
:100DEC001437BD4680BC7047000400400010024020
:100DFC000008004080B588B000AF786007F11003A0
:100E0C0000221A605A609A60DA607B681B680F4A8D
:100E1C00934217D10E4B9B690D4A43F00803936123
:100E2C000B4B9B6903F00803FB60FB6840233B61A1
:100E3C0002237B610223FB6107F11003194605486D
:100E4C0001F080F900BF2037BD4680BD000800408E
:100E5C0000100240000C014080B400AF00BFFDE761
:100E6C0080B400AF00BFFDE780B400AF00BFFDE76A
:100E7C0080B400AF00BFFDE780B400AF00BFFDE75A
:100E8C0080B400AF00BFBD4680BC704780B400AFDB
:100E9C0000BFBD4680BC704780B400AF00BFBD46EC
:100EAC0080BC704780B500AF00F0BEF800BF80BDBD
:100EBC0080B500AF024801F011F800BF80BD00BF43
:100ECC004C02002080B500AF024801F0F2FB00BFDD
:100EDC0080BD00BF0C38002080B586B000AF7860B4
:100EEC00144A154BD31A7B617B693B61134B1B680E
:100EFC00002B02D1114B124A1A60104B1A687B68F6
:100F0C0013443A699A4207D209F05AF803460C2264
:100F1C001A604FF0FF3309E0084B1B68FB60074B6E
:100F2C001A687B681344054A1360FB681846183727
:100F3C00BD4680BD00500020000400003C2B00206A
:100F4C00503E002080B400AF00BFBD4680BC70474F
:100F5C00FFF7F8FF0B480C490C4A002302E0D45869
:100F6C00C4500433C4188C42F9D3094A094C0023E9
:100F7C0001E013600432A242FBD309F027F8FFF71B
:100F8C00FBF8704700000020D0010020CCAA00081C
:100F9C00D00100204C3E0020FEE7000080B500AFE1
:100FAC00084B1B68074A43F010031360032000F042
:100FBC0099FE0F2000F008F8FFF724FE00231846D6
:100FCC0080BD00BF0020024080B582B000AF7860C9
:100FDC00124B1A68124B1B7819464FF47A73B3FBF9
:100FEC00F1F3B2FBF3F3184600F0B1FE0346002B0D
:100FFC0001D001230EE07B680F2B0AD80022796800
:10100C004FF0FF3000F079FE064A7B681360002336
:10101C0000E0012318460837BD4680BD04000020BF
:10102C000C0000200800002080B400AF054B1B789A
:10103C001A46054B1B681344034A136000BFBD4698
:10104C0080BC70470C000020402B002080B400AF07
:10105C00024B1B681846BD4680BC7047402B0020D5
:10106C0080B584B000AF7860FFF7F0FFB8607B68A4
:10107C00FB60FB68B3F1FF3F05D00A4B1B781A46A7
:10108C00FB681344FB6000BFFFF7E0FF0246BB6840
:10109C00D31AFA689A42F7D800BF00BF1037BD4682
:1010AC0080BD00BF0C00002080B586B000AF78601A
:1010BC000023FB7500233B610023BB600023FB6016
:1010CC007B68002B01D10123BEE07B689B68002B61
:1010DC007B689B6A002B09D17B680022DA627B68F3
:1010EC00002283F824207868FFF7BEFD786800F0B2
:1010FC00CFFA0346FB757B689B6A03F01003002B49
:10110C0040F09980FB7D002B40F095807B689B6ABA
:10111C0023F4885323F0020343F002027B689A62A3
:10112C007B685A687B68DB691A437B681B7B5B00B6
:10113C001343BA681343BB607B689B68B3F5807F2D
:10114C0003D07B689B68012B02D14FF4807300E0C5
:10115C0000233A6913433B617B681B7D012B19D13A
:10116C007B681B7B002B09D17B689B69013B5A0375
:10117C003B69134343F400633B610BE07B689B6A60
:10118C0043F020027B689A627B68DB6A43F00102C1
:10119C007B68DA627B681B685B6823F469417B6857
:1011AC001B683A690A435A607B681B689A68284B2B
:1011BC0013407A681268B9680B4393607B689B682C
:1011CC00B3F5807F03D07B689B68012B04D17B68CF
:1011DC001B69013B1B05FB607B681B68DB6A23F406
:1011EC0070017B681B68FA680A43DA627B681B68CB
:1011FC009A68184B1340BA689A420BD17B6800224C
:10120C00DA627B689B6A23F0030343F001027B687C
:10121C009A6218E07B689B6A23F0120343F0100279
:10122C007B689A627B68DB6A43F001027B68DA6256
:10123C000123FB7507E07B689B6A43F010027B6817
:10124C009A620123FB75FB7D18461837BD4680BD9D
:10125C00FDF7E1FFFE0E1FFF80B584B000AF786094
:10126C000023FB737B6893F82430012B01D10223FC
:10127C0098E07B68012283F82420786800F0AEF9AE
:10128C000346FB73FB7B002B40F087807B689B6ADB
:10129C0023F4407323F0010343F480727B689A6259
:1012AC007B681B68414A934205D1414B5B6803F450
:1012BC007023002B15D17B689B6A23F480127B680A
:1012CC009A627B681B685B6803F48063002B26D0F2
:1012DC007B689B6A23F4405343F480527B689A6288
:1012EC001DE07B689B6A43F480127B689A627B6882
:1012FC001B682F4A934204D07B681B682B4A93428D
:10130C000DD12B4B5B6803F48063002B07D07B68FB
:10131C009B6A23F4405343F480527B689A627B6847
:10132C009B6A03F48053002B06D07B68DB6A23F0A6
:10133C0006027B68DA6202E07B680022DA627B6874
:10134C00002283F824207B681B686FF002021A606D
:10135C007B681B689B6803F46023B3F5602F13D183
:10136C007B681B68114A934205D1114B5B6803F4EF
:10137C007023002B08D17B681B689A687B681B68FC
:10138C0042F4A0029A600CE07B681B689A687B6848
:10139C001B6842F480129A6003E07B68002283F899
:1013AC002420FB7B18461037BD4680BD0028014029
:1013BC000024014080B483B000AF786000BF0C37CC
:1013CC00BD4680BC704780B483B000AF786000BF6E
:1013DC000C37BD4680BC704780B483B000AF7860DA
:1013EC0000BF0C37BD4680BC7047000080B485B090
:1013FC0000AF786039600023FB730023BB607B680F
:10140C0093F82430012B01D10223DCE07B6801220C
:10141C0083F824203B685B68062B1CD87B681B6810
:10142C00596B3B685A6813469B001344053B1F22BB
:10143C0002FA03F3DB4319403B6818683B685A68AF
:10144C0013469B001344053B00FA03F27B681B68B0
:10145C000A435A633CE03B685B680C2B1CD87B68E6
:10146C001B68196B3B685A6813469B001344233B5B
:10147C001F2202FA03F3DB4319403B6818683B68F0
:10148C005A6813469B001344233B00FA03F27B6813
:10149C001B680A431A631BE07B681B68D96A3B68AC
:1014AC005A6813469B001344413B1F2202FA03F374
:1014BC00DB4319403B6818683B685A6813469B002D
:1014CC001344413B00FA03F27B681B680A43DA625F
:1014DC003B681B68092B1CD97B681B68D9683B6867
:1014EC001A6813465B0013441E3B072202FA03F3EF
:1014FC00DB4319403B6898683B681A6813465B00ED
:10150C0013441E3B00FA03F27B681B680A43DA6043
:10151C0019E07B681B6819693B681A6813465B0005
:10152C001344072202FA03F3DB4319403B68986823
:10153C003B681A6813465B00134400FA03F27B689D
:10154C001B680A431A613B681B68102B03D03B686D
:10155C001B68112B32D17B681B681D4A934225D125
:10156C007B681B689B6803F40003002B26D17B6807
:10157C001B689A687B681B6842F400029A603B689F
:10158C001B68102B1AD1134B1B68134AA2FB0323A5
:10159C009A0C13469B0013445B00BB6002E0BB68D3
:1015AC00013BBB60BB68002BF9D107E07B689B6AF1
:1015BC0043F020027B689A620123FB737B68002254
:1015CC0083F82420FB7B18461437BD4680BC70473B
:1015DC00002401400400002083DE1B4380B584B04E
:1015EC0000AF78600023FB600023BB607B681B6846
:1015FC009B6803F00103012B40D07B681B689A6841
:10160C007B681B6842F001029A601F4B1B681F4AE3
:10161C00A2FB03239B0CBB6002E0BB68013BBB60DD
:10162C00BB68002BF9D1FFF711FDF8601FE0FFF745
:10163C000DFD0246FB68D31A022B18D97B681B6878
:10164C009B6803F00103012B11D07B689B6A43F06C
:10165C0010027B689A627B68DB6A43F001027B684C
:10166C00DA627B68002283F82420012307E07B6880
:10167C001B689B6803F00103012BD8D1002318468B
:10168C001037BD4680BD00BF0400002083DE1B4325
:10169C0080B584B000AF78600023FB607B681B686A
:1016AC009B6803F00103012B2ED17B681B689A68A1
:1016BC007B681B6822F001029A60FFF7C7FCF86098
:1016CC001BE0FFF7C3FC0246FB68D31A022B14D9AC
:1016DC007B681B689B6803F00103012B0DD17B68B1
:1016EC009B6A43F010027B689A627B68DB6A43F06A
:1016FC0001027B68DA62012307E07B681B689B6848
:10170C0003F00103012BDCD0002318461037BD4633
:10171C0080BD80B584B000AF78607B685B6AFB608D
:10172C00FB689B6A03F05003002B27D1FB689B6A74
:10173C0043F40072FB689A62FB681B689B6803F4B5
:10174C006023B3F5602F15D1FB681B7B002B11D1E7
:10175C00FB689B6A23F48072FB689A62FB689B6A45
:10176C0003F48053002B05D1FB689B6A43F0010204
:10177C00FB689A62F868FFF71DFE04E0FB681B6AC1
:10178C001B6B7868984700BF1037BD4680BD80B58D
:10179C0084B000AF78607B685B6AFB60F868FFF729
:1017AC0012FE00BF1037BD4680BD80B584B000AFBF
:1017BC0078607B685B6AFB60FB689B6A43F0400265
:1017CC00FB689A62FB68DB6A43F00402FB68DA622E
:1017DC00F868FFF701FE00BF1037BD4680BD000062
:1017EC0090B587B000AF78600023FB750023FB60D9
:1017FC007B6893F82430012B01D1022397E07B689E
:10180C00012283F824207868FFF742FF0346FB751A
:10181C007868FFF7E3FE0346FB75FB7D002B40F079
:10182C0081807B689B6A23F4885323F0020343F086
:10183C0002027B689A62404B1C68022003F030F86D
:10184C000346B4FBF3F35B00FB6002E0FB68013B77
:10185C00FB60FB68002BF9D17B681B689A687B687E
:10186C001B6842F008029A60FFF7F0FB38611BE03E
:10187C00FFF7ECFB02463B69D31A0A2B14D97B68A1
:10188C001B689B6803F00803002B0DD07B689B6AD8
:10189C0023F0120343F010027B689A627B680022EB
:1018AC0083F82420012342E07B681B689B6803F0CB
:1018BC000803002BDCD17B681B689A687B681B686B
:1018CC0042F004029A60FFF7C1FB38611BE0FFF79E
:1018DC00BDFB02463B69D31A0A2B14D97B681B68E3
:1018EC009B6803F00403002B0DD07B689B6A23F0EC
:1018FC00120343F010027B689A627B68002283F823
:10190C002420012313E07B681B689B6803F004030D
:10191C00002BDCD17B689B6A23F0030343F00102AC
:10192C007B689A627B68002283F82420FB7D184632
:10193C001C37BD4690BD00BF0400002080B592B09E
:10194C0000AFF860B9607A60002387F8473007F180
:10195C00140330220021184608F02AFBFB6893F888
:10196C002430012B01D102238FE0FB68012283F884
:10197C002420484B7B617B699B6803F46023B3F59F
:10198C00602F0BD0FB689B6A43F02002FB689A62C5
:10199C00FB68002283F82420012376E0F868FFF727
:1019AC001DFE034687F8473097F84730002B07D1C8
:1019BC0007F114031846FFF711FE034687F847306A
:1019CC0097F84730002B5AD1FB689A6A324B134078
:1019DC0043F48072FB689A62FB681B685B6803F4D3
:1019EC008063002B07D0FB689B6A23F4405343F4BD
:1019FC008052FB689A62FB68002283F82420FB6803
:101A0C000022DA62FB681B6A244A9A62FB681B6A32
:101A1C00234ADA62FB681B6A224A1A63FB681B685A
:101A2C006FF002021A60FB681B689A68FB681B68FF
:101A3C0042F480729A60FB68186AFB681B684C332E
:101A4C001946BA687B6800F0E9F9FB681B689B686B
:101A5C0003F46023B3F5602F08D1FB681B689A6808
:101A6C00FB681B6842F4A0029A600CE0FB681B68E0
:101A7C009A68FB681B6842F480129A6003E0FB686A
:101A8C00002283F8242097F8473018464837BD4683
:101A9C0080BD00BF00280140FEFCEFFF1F170008AF
:101AAC009B170008B717000880B590B000AF78609E
:101ABC003960002387F83F3007F10C0330220021F6
:101ACC00184608F075FA7B6893F82430012B01D185
:101ADC00022332E07B68012283F82420194BFB603F
:101AEC007B681B689B6803F00103012B16D0FB6815
:101AFC009B6803F00103012B10D07B681B68124A12
:101B0C0093420BD17B681B685B6823F470213B68A4
:101B1C001A687B681B680A435A6008E07B689B6AFA
:101B2C0043F020027B689A62012387F83F307B6880
:101B3C00002283F8242097F83F3018464037BD46E2
:101B4C0080BD00BF002801400024014080B485B056
:101B5C0000AF78607B6803F00703FB600C4BDB681D
:101B6C00BB60BA684FF6FF031340BB60FB681A02F8
:101B7C00BB68134343F0BF6343F40033BB60044AB8
:101B8C00BB68D36000BF1437BD4680BC704700BF34
:101B9C0000ED00E080B400AF044BDB681B0A03F0DF
:101BAC0007031846BD4680BC704700BF00ED00E03F
:101BBC0080B483B000AF0346FB7197F90730002B5C
:101BCC000BDBFB7903F01F02064997F907305B0921
:101BDC00012000FA02F241F8232000BF0C37BD4669
:101BEC0080BC704700E100E080B483B000AF0346D6
:101BFC003960FB7197F90730002B0ADB3B68DAB2CE
:101C0C000C4997F907301201D2B20B4483F8002328
:101C1C000AE03B68DAB20849FB7903F00F03043B96
:101C2C001201D2B20B441A7600BF0C37BD4680BCF1
:101C3C00704700BF00E100E000ED00E080B489B027
:101C4C0000AFF860B9607A60FB6803F00703FB61D2
:101C5C00FB69C3F10703042B28BF0423BB61FB6999
:101C6C000433062B02D9FB69033B00E000237B61A4
:101C7C004FF0FF32BB6902FA03F3DA43BB681A4038
:101C8C007B699A404FF0FF317B6901FA03F3D9432A
:101C9C007B680B40134318462437BD4680BC704705
:101CAC0080B582B000AF78607B68013BB3F1807F78
:101CBC0001D301230FE00A4A7B68013B53600F21DB
:101CCC004FF0FF30FFF790FF054B00229A60044B5A
:101CDC0007221A60002318460837BD4680BD00BF96
:101CEC0010E000E080B582B000AF78607868FFF754
:101CFC002DFF00BF0837BD4680BD80B586B000AF54
:101D0C000346B9607A60FB7300237B61FFF742FFE7
:101D1C0078617A68B9687869FFF790FF024697F99D
:101D2C000F3011461846FFF75FFF00BF1837BD464E
:101D3C0080BD80B582B000AF0346FB7197F90730C8
:101D4C001846FFF735FF00BF0837BD4680BD80B58C
:101D5C0082B000AF78607868FFF7A2FF03461846A0
:101D6C000837BD4680BD000080B485B000AF7860F8
:101D7C000023FB607B68002B01D1012343E07B68CF
:101D8C001B681A46224B1344224AA2FB03231B094D
:101D9C009A007B681A647B681F4ADA637B680222AC
:101DAC0083F821207B681B681B68FB60FB6823F4AD
:101DBC007F5323F03003FB607B685A687B689B6819
:101DCC001A437B68DB681A437B681B691A437B6880
:101DDC005B691A437B689B691A437B68DB69134315
:101DEC00FA681343FB607B681B68FA681A607B68AF
:101DFC0000229A637B68012283F821207B680022F1
:101E0C0083F82020002318461437BD4680BC704749
:101E1C00F8FFFDBFCDCCCCCC0000024080B586B025
:101E2C0000AFF860B9607A603B600023FB75FB681B
:101E3C0093F82030012B01D102234BE0FB680122E7
:101E4C0083F82020FB6893F82130DBB2012B3AD1C8
:101E5C00FB68022283F82120FB6800229A63FB684E
:101E6C001B681A68FB681B6822F001021A603B6849
:101E7C007A68B968F86800F037F9FB68DB6A002B00
:101E8C0008D0FB681B681A68FB681B6842F00E02DE
:101E9C001A600FE0FB681B681A68FB681B6822F06D
:101EAC0004021A60FB681B681A68FB681B6842F026
:101EBC000A021A60FB681B681A68FB681B6842F010
:101ECC0001021A6005E0FB68002283F8202002233F
:101EDC00FB75FB7D18461837BD4680BD80B584B0B8
:101EEC0000AF78607B68DB6B1B68FB607B681B68F2
:101EFC001B68BB607B681B6C04229A40FB68134018
:101F0C00002B4FD0BB6803F00403002B4AD07B6836
:101F1C001B681B6803F02003002B07D17B681B6830
:101F2C001A687B681B6822F004021A607B681B68C5
:101F3C00664A934229D07B681B68654A934222D03B
:101F4C007B681B68634A93421AD07B681B68624AA1
:101F5C00934212D07B681B68604A93420AD07B681C
:101F6C001B685F4A934202D14FF480030EE04FF09E
:101F7C0080630BE04FF4802308E04FF4804305E0CE
:101F8C004FF4806302E0402300E00423554A536081
:101F9C007B68DB6A002B00F094807B68DB6A7868D6
:101FAC0098478EE07B681B6C02229A40FB681340BA
:101FBC00002B56D0BB6803F00203002B51D07B687A
:101FCC001B681B6803F02003002B0BD17B681B687C
:101FDC001A687B681B6822F00A021A607B6801226F
:101FEC0083F821207B681B68384A934229D07B6890
:101FFC001B68374A934222D07B681B68354A934250
:10200C001AD07B681B68344A934212D07B681B68D9
:10201C00324A93420AD07B681B68314A934202D100
:10202C004FF400130EE04FF000730BE04FF400334D
:10203C0008E04FF4005305E04FF4007302E0202356
:10204C0000E00223274A53607B68002283F820209B
:10205C007B689B6A002B34D07B689B6A78689847B6
:10206C002FE07B681B6C08229A40FB681340002B06
:10207C0028D0BB6803F00803002B23D07B681B68B7
:10208C001A687B681B6822F00E021A607B681A6C57
:10209C007B68DB6B012101FA02F25A607B6801223A
:1020AC009A637B68012283F821207B68002283F8E5
:1020BC0020207B681B6B002B04D07B681B6B786823
:1020CC00984700BF00BF1037BD4680BD08000240D6
:1020DC001C00024030000240440002405800024004
:1020EC006C0002400000024080B485B000AFF86084
:1020FC00B9607A603B60FB681A6CFB68DB6B012192
:10210C0001FA02F25A60FB681B683A685A60FB6875
:10211C005B68102B08D1FB681B687A689A60FB68B7
:10212C001B68BA68DA6007E0FB681B68BA689A60DB
:10213C00FB681B687A68DA6000BF1437BD4680BC48
:10214C007047000080B48BB000AF7860396000231A
:10215C007B6200233B6269E101227B6A02FA03F392
:10216C00FB613B681B68FA691340BB61BA69FB6988
:10217C009A4240F058813B685B689A4A93425ED021
:10218C00984A934275D8984A934258D0964A9342AB
:10219C006FD8964A934252D0944A934269D8944A43
:1021AC0093424CD0924A934263D8924A934246D07F
:1021BC00904A93425DD8122B2AD8122B59D801A2DF
:1021CC0052F823F04B220008252200083722000881
:1021DC00792200087F2200087F2200087F22000855
:1021EC007F2200087F2200087F2200087F2200083F
:1021FC007F2200087F2200087F2200087F2200082F
:10220C007F2200087F2200082D22000841220008AE
:10221C00794A934213D02CE03B68DB683B6229E09F
:10222C003B68DB6804333B6224E03B68DB680833C3
:10223C003B621FE03B68DB680C333B621AE03B6897
:10224C009B68002B02D104233B6213E03B689B6824
:10225C00012B05D108233B627B68FA691A6109E0FE
:10226C0008233B627B68FA695A6103E000233B62F6
:10227C0000E000BFBB69FF2B01D87B6801E07B68E5
:10228C0004337B61BB69FF2B02D87B6A9B0002E0A5
:10229C007B6A083B9B003B617B691A680F213B6999
:1022AC0001FA03F3DB431A40396A3B6901FA03F381
:1022BC001A437B691A603B685B6803F08053002B00
:1022CC0000F0B1804D4B9B694C4A43F00103936184
:1022DC004A4B9B6903F00103BB60BB68484A7B6AAD
:1022EC009B08023352F82330FB607B6A03F0030334
:1022FC009B000F2202FA03F3DB43FA681340FB60E6
:10230C007B68404A934213D07B683F4A93420DD07E
:10231C007B683E4A934207D07B683D4A934201D189
:10232C00032306E0042304E0022302E0012300E07F
:10233C0000237A6A02F0030292009340FA68134376
:10234C00FB602F497B6A9B080233FA6841F8232013
:10235C003B685B6803F48013002B06D02D4B9A6806
:10236C002C49BB6913438B6006E02A4B9A68BB6906
:10237C00DB43284913408B603B685B6803F4001314
:10238C00002B06D0234BDA682249BB691343CB6080
:10239C0006E0204BDA68BB69DB431E491340CB6077
:1023AC003B685B6803F40033002B06D0194B5A686A
:1023BC001849BB6913434B6006E0164B5A68BB695E
:1023CC00DB43144913404B603B685B6803F4803378
:1023DC00002B21D00F4B1A680E49BB6913430B60BD
:1023EC0021E000BF0000321000003110000022106C
:1023FC00000021100000121000001110001002400B
:10240C000000014000080140000C01400010014098
:10241C0000140140000401400B4B1A68BB69DB43FC
:10242C00094913400B607B6A01337B623B681A6875
:10243C007B6A22FA03F3002B7FF48EAE00BF00BF41
:10244C002C37BD4680BC70470004014080B485B079
:10245C0000AF78600B467B807B689A687B88134062
:10246C00002B02D00123FB7301E00023FB73FB7BE9
:10247C0018461437BD4680BC704780B584B000AF99
:10248C0078607B68002B01D10123E8E07B6893F82E
:10249C009132DBB2002B06D17B68002283F89022AC
:1024AC00786807F031FA7B68032283F891227B6805
:1024BC0000225A717B681B68184603F01CF97B6874
:1024CC0018687B6804330ECB03F0F2F80346002B3C
:1024DC0005D07B68022283F891220123BFE07B6840
:1024EC001B680021184603F020F90346002B05D089
:1024FC007B68022283F891220123B0E00023FB7356
:10250C003EE0FA7B796813469B001344DB000B44D6
:10251C00113301221A70FA7B796813469B0013441D
:10252C00DB000B441033FA7B1A70FA7B7968134684
:10253C009B001344DB000B44133300221A70FA7B0C
:10254C00796813469B001344DB000B4420330022B4
:10255C001A60FA7B796813469B001344DB000B442A
:10256C00243300221A60FB7B79685A1C13469B00AB
:10257C001344DB000B4400221A60FB7B0133FB731A
:10258C007B681B79FA7B9A42BBD30023FB7344E034
:10259C00FA7B796813469B001344DB000B4403F26F
:1025AC00511300221A70FA7B796813469B0013446E
:1025BC00DB000B4403F5A873FA7B1A70FA7B79687D
:1025CC0013469B001344DB000B4403F2531300220D
:1025DC001A70FA7B796813469B001344DB000B449A
:1025EC0003F5B07300221A60FA7B796813469B00DE
:1025FC001344DB000B4403F5B27300221A60FA7B20
:10260C00796813469B001344DB000B4403F5B47349
:10261C0000221A60FB7B0133FB737B681B79FA7B0E
:10262C009A42B5D37B6818687B6804330ECB03F0F1
:10263C0088F80346002B05D07B68022283F8912290
:10264C0001230CE07B6800225A737B68012283F81B
:10265C0091227B681B68184605F007FB002318467F
:10266C001037BD4680BD80B582B000AF78607B6806
:10267C0093F89032012B01D1022316E07B680122E2
:10268C0083F890227B681B68184603F01EF8012122
:10269C00786807F0ACFB7B681B68184605F0DBFA22
:1026AC007B68002283F89022002318460837BD4629
:1026BC0080BD80B588B000AF78607B681B68184619
:1026CC0005F0DDFAB861BB6903F40043002B03D0BD
:1026DC00786800F01AFB19E1BB6903F48063002BE6
:1026EC0013D07B681B68B3F844309AB27B681B68C4
:1026FC0022F4806292B2A3F84420786807F07FF944
:10270C000021786800F005F900E1BB6903F480430F
:10271C00002B0CD07B681B68B3F844309AB27B68F2
:10272C001B6822F4804292B2A3F84420EEE0BB690D
:10273C0003F40053002B0CD07B681B68B3F84430B7
:10274C009AB27B681B6822F4005292B2A3F8442020
:10275C00DCE0BB6903F48053002B27D07B681B683B
:10276C00B3F840309AB27B681B6822F0040292B234
:10277C00A3F840207B681B68B3F840309AB27B68A2
:10278C001B6822F0080292B2A3F84020786807F088
:10279C006FF97B681B68B3F844309AB27B681B688E
:1027AC0022F4805292B2A3F84420AFE0BB6903F448
:1027BC000063002B00F083800023FB7710E07B6824
:1027CC001B681A46FB7F9B001A44FB7F128892B24F
:1027DC005B0020333B4423F8182CFB7F0133FB7741
:1027EC00FB7F072BEBD97B681B68B3F840309AB2A0
:1027FC007B681B6842F0010292B2A3F840207B6810
:10280C001B68B3F840309AB27B681B6822F0010257
:10281C0092B2A3F8402000BF7B681B68B3F8443029
:10282C009BB203F48063002BF6D07B681B68B3F873
:10283C0044309AB27B681B6822F4806292B2A3F88F
:10284C0044200023FB770FE0FB7F7A681268114667
:10285C00FA7F92000A445B0020333B4433F8183C67
:10286C001380FB7F0133FB77FB7F072BECD97B6855
:10287C001B68B3F840309AB27B681B6842F00802C0
:10288C0092B2A3F840207B681B68B3F844309AB22C
:10289C007B681B6822F4006292B2A3F844207B6828
:1028AC001B68B3F840309AB27B681B6842F0040294
:1028BC0092B2A3F84020786807F0C0F826E0BB6914
:1028CC0003F40073002B0FD07B681B68B3F8443003
:1028DC009AB27B681B6822F4007292B2A3F844206F
:1028EC00786807F07EF811E0BB6903F48073002B65
:1028FC000CD07B681B68B3F844309AB27B681B68B9
:10290C0022F4807292B2A3F8442000BF2037BD4657
:10291C0080BD80B582B000AF78600B46FB707B68E1
:10292C0093F89032012B01D1022312E07B68012233
:10293C0083F890227B68FA785A737B681B68FA7864
:10294C001146184605F074F97B68002283F8902232
:10295C00002318460837BD4680BD80B584B000AF53
:10296C007860084611461A460346FB700B463B80BE
:10297C001346BB700023FB7297F90330002B0EDA61
:10298C00FB7803F0070213469B001344DB00103363
:10299C007A681344FB60FB6801225A700EE0FB78E6
:1029AC0003F0070213469B001344DB0003F5A873E6
:1029BC007A681344FB60FB6800225A70FB7803F0C2
:1029CC000703DAB2FB681A703A88FB681A61FB6875
:1029DC00BA78DA70BB78022B02D1FB6800221A712C
:1029EC007B6893F89032012B01D102230EE07B68B7
:1029FC00012283F890227B681B68F968184602F064
:102A0C00BDFE7B68002283F89022FB7A18461037B3
:102A1C00BD4680BD80B584B000AF78600B46FB70BE
:102A2C0097F90330002B0EDAFB7803F007021346FC
:102A3C009B001344DB0010337A681344FB60FB6883
:102A4C0001225A700EE0FB7803F0070213469B003C
:102A5C001344DB0003F5A8737A681344FB60FB682E
:102A6C0000225A70FB7803F00703DAB2FB681A7085
:102A7C007B6893F89032012B01D102230EE07B6826
:102A8C00012283F890227B681B68F968184603F0D2
:102A9C0035FA7B68002283F8902200231846103701
:102AAC00BD4680BD80B586B000AFF8607A603B60F3
:102ABC000B46FB72FB7A03F0070213469B00134490
:102ACC00DB0003F5A873FA6813447B617B697A68B1
:102ADC005A617B693A689A617B690022DA617B6989
:102AEC0000225A70FB7A03F00703DAB27B691A7082
:102AFC00FB681B687969184603F0ECFB0023184649
:102B0C001837BD4680BD80B483B000AF78600B46EB
:102B1C00FB70FB7803F00702796813469B001344A3
:102B2C00DB000B4403F5B6731B6818460C37BD4627
:102B3C0080BC704780B586B000AFF8607A603B60AF
:102B4C000B46FB72FB7A03F0070213469B001344FF
:102B5C00DB001033FA6813447B617B697A685A6135
:102B6C007B693A689A617B69012283F824207B692E
:102B7C003A681A627B690022DA617B6901225A7019
:102B8C00FB7A03F00703DAB27B691A70FB681B68E7
:102B9C007969184603F09EFB002318461837BD468A
:102BAC0080BD80B584B000AF78600B46FB70FB78BD
:102BBC0003F007037A681279934201D901234CE0A0
:102BCC0097F90330002B0EDAFB7803F0070213465B
:102BDC009B001344DB0010337A681344FB60FB68E2
:102BEC0001225A700CE0FA7813469B001344DB0068
:102BFC0003F5A8737A681344FB60FB6800225A70D3
:102C0C00FB6801229A70FB7803F00703DAB2FB68C9
:102C1C001A707B6893F89032012B01D102231CE0CF
:102C2C007B68012283F890227B681B68F968184640
:102C3C0004F001FFFB7803F00703002B08D17B683D
:102C4C001A687B6803F526731946104605F026F8BA
:102C5C007B68002283F89022002318461037BD466B
:102C6C0080BD80B584B000AF78600B46FB70FB78FC
:102C7C0003F00F037A681279934201D9012340E0E3
:102C8C0097F90330002B0EDAFB7803F0070213469A
:102C9C009B001344DB0010337A681344FB60FB6821
:102CAC0001225A700EE0FB7803F0070213469B00DA
:102CBC001344DB0003F5A8737A681344FB60FB68CC
:102CCC0000225A70FB6800229A70FB7803F007030D
:102CDC00DAB2FB681A707B6893F89032012B01D141
:102CEC0002230EE07B68012283F890227B681B682C
:102CFC00F968184604F0EFFE7B68002283F89022F6
:102D0C00002318461037BD4680BD80B596B000AF85
:102D1C007860BBE37B681B68B3F84430A7F84E308F
:102D2C00B7F84E30DBB203F00F0387F84D3097F84D
:102D3C004D30002B40F07581B7F84E3003F0100386
:102D4C00002B4ED17B681B681B889BB223F4E1439C
:102D5C0023F07003FB817B681A68FB896FEA43439D
:102D6C006FEA53439BB213807B6810337B657B689F
:102D7C001B68B3F850309BB21A467B6D1B78DB0096
:102D8C00134402335B007A681268134403F58063C2
:102D9C001B88C3F309027B6DDA617B6D5A697B6D0D
:102DAC00DB691A447B6D5A610021786806F0FFFDDF
:102DBC007B685B7BDBB2002B00F068837B6D9B69CF
:102DCC00002B40F063837B685B7BDBB263F07F039B
:102DDC00DAB27B681B68A3F84C207B6800225A731C
:102DEC0054E37B6803F5A8737B657B681B681B88C1
:102DFC00A7F84A30B7F84A3003F40063002B34D0FC
:102E0C007B681B68B3F850309BB21A467B6D1B78FD
:102E1C00DB00134406335B007A681268134403F535
:102E2C0080631B88C3F309027B6DDA617B681868C9
:102E3C007B6803F526717B6DDA887B6DDB699BB251
:102E4C0004F07DFF7B681B681B889AB240F68F7379
:102E5C0013403B827B681B683A8A42F0800292B234
:102E6C001A80786806F076FD10E3B7F94A30002B2B
:102E7C0080F20C837B681B681B889AB240F68F73B8
:102E8C001340FB837B681B68FA8B42F0800292B282
:102E9C001A807B681B68B3F850309BB21A467B6D66
:102EAC001B78DB00134406335B007A68126813440A
:102EBC0003F580631B88C3F309027B6DDA617B6DBC
:102ECC00DB69002B19D07B6D5B69002B15D07B68FF
:102EDC0018687B6D59697B6DDA887B6DDB699BB2F9
:102EEC0004F02DFF7B6D5A697B6DDB691A447B6D99
:102EFC005A610021786806F03FFD7B681B681B88CF
:102F0C00A7F84A30B7F84A3003F40063002B40F0BE
:102F1C00BD82B7F84A3003F44053B3F5405F00F07C
:102F2C00B5827B681B68BB617B681B68B3F850304B
:102F3C009BB21A46BB691344BB61BB6903F20C43D9
:102F4C007B617B691B889BB2C3F309039AB27B69D3
:102F5C001A807B6D1B693E2B1DD97B6D1B695B0930
:102F6C007B647B6D1B6903F01F03002B02D17B6C10
:102F7C00013B7B647B691B889AB27B6C9BB29B0286
:102F8C009BB213439BB26FEA43436FEA53439AB22B
:102F9C007B691A8026E07B6D1B69002B0AD17B694B
:102FAC001B889BB26FEA43436FEA53439AB27B6927
:102FBC001A8017E07B6D1B695B087B647B6D1B695A
:102FCC0003F00103002B02D07B6C01337B647B6923
:102FDC001B889AB27B6C9BB29B029BB213439AB236
:102FEC007B691A807B681B681B889BB223F4804327
:102FFC0023F070037B827B8A83F480537B827B8AF1
:10300C0083F400537B827B681A687B8A43F07F438E
:10301C0043F47F0343F4004343F080039BB21380DB
:10302C0034E27B681B681A4697F84D309B001344BA
:10303C001B88A7F84A30B7F94A30002B80F2FC8085
:10304C007B681B681A4697F84D309B0013441B880D
:10305C009AB240F68F731340A7F848307B681B6810
:10306C001A4697F84D309B001344B7F8482042F0AD
:10307C00800292B21A8097F84D2013469B0013449D
:10308C00DB0003F5A8737A6813447B657B6D1B7BAF
:10309C00002B25D17B681B68B3F850309BB21A46C5
:1030AC007B6D1B78DB00134406335B007A68126877
:1030BC00134403F580631B88C3F30903A7F850304E
:1030CC00B7F85030002B00F092807B6818687B6D4D
:1030DC0059697B6DDA88B7F8503004F030FE86E021
:1030EC007B6DDB78022B0AD1B7F84A301A46796D22
:1030FC00786800F0D9F90346A7F8503077E07B6880
:10310C001B681A467B6D1B789B0013441B889BB273
:10311C0023F4E04323F07003A7F852307B681B685C
:10312C001A467B6D1B789B001A44B7F8523043F05B
:10313C007F4343F47F0343F4004343F0C0039BB24B
:10314C0013807B681B681A467B6D1B789B001344AD
:10315C001B889BB203F48043002B24D07B681B6834
:10316C00B3F850309BB21A467B6D1B78DB001344CE
:10317C0002335B007A681268134403F580631B8882
:10318C00C3F30903A7F85030B7F85030002B2ED0FA
:10319C007B6818687B6D59697B6D1A89B7F850305C
:1031AC0004F0CDFD23E07B681B68B3F850309BB274
:1031BC001A467B6D1B78DB00134406335B007A6880
:1031CC001268134403F580631B88C3F30903A7F843
:1031DC005030B7F85030002B09D07B6818687B6DE5
:1031EC0059697B6D5A89B7F8503004F0A8FD7B6D96
:1031FC00DA69B7F850301A447B6DDA617B6D5A6925
:10320C00B7F850301A447B6D5A617B6D9B69002B6B
:10321C0005D0B7F850207B6D1B699A4206D27B6DA6
:10322C001B781946786806F0A7FB05E07B681B68DD
:10323C00796D184603F04EF8B7F84A3003F0800366
:10324C00002B00F0238197F84D2013469B0013446C
:10325C00DB0010337A6813447B657B681B681A4665
:10326C0097F84D309B0013441B889BB223F4E14329
:10327C0023F07003A7F842307B681B681A4697F856
:10328C004D309B001A44B7F842306FEA43436FEA63
:10329C0053439BB213807B6DDB78012B40F0A280F3
:1032AC007B6D00229A617B6D1B7B002B00F0938061
:1032BC00B7F84A3003F04003002B46D07B6D5B78A7
:1032CC00002B26D17B681B687B627B681B68B3F87C
:1032DC0050309BB21A467B6A13447B627B6D1B7821
:1032EC001A017B6A134403F204433B623B6A1B885A
:1032FC009BB2C3F309039AB23B6A1A803B6A1B88E0
:10330C009BB26FEA43436FEA53439AB23B6A1A800B
:10331C0061E07B6D5B78012B5DD17B681B68FB6288
:10332C007B681B68B3F850309BB21A46FB6A134497
:10333C00FB627B6D1B781A01FB6A134403F2044396
:10334C00BB62BB6A00221A8045E07B681B68FB638A
:10335C007B6D5B78002B26D17B681B687B637B685D
:10336C001B68B3F850309BB21A467B6B13447B63DB
:10337C007B6D1B781A017B6B134403F20C433B638C
:10338C003B6B1B889BB2C3F309039AB23B6B1A804D
:10339C003B6B1B889BB26FEA43436FEA53439AB271
:1033AC003B6B1A8017E07B6D5B78012B13D17B682C
:1033BC001B68B3F850309BB21A46FB6B1344FB638B
:1033CC007B6D1B781A01FB6B134403F20C43BB633C
:1033DC00BB6B00221A807B6D1B781946786806F04F
:1033EC00E6FA53E0B7F84A3003F48073002B46D169
:1033FC007B681B68B3F850309BB21A467B6D1B7808
:10340C00DB00134402335B007A681268134403F543
:10341C0080631B88C3F30903A7F840307B6D9A695E
:10342C00B7F840309A4207D97B6D9A69B7F84030AB
:10343C00D21A7B6D9A6102E07B6D00229A617B6DE2
:10344C009B69002B06D17B6D1B781946786806F0BA
:10345C00AEFA1BE07B6D5A69B7F840301A447B6DAD
:10346C005A617B6DDA69B7F840301A447B6DDA61CA
:10347C007B681B68796D184602F02CFF06E0B7F8E4
:10348C004A301A46796D786800F01BF97B681B6826
:10349C00B3F844309BB21BB2002BFFF63BAC0023BD
:1034AC0018465837BD4680BD80B588B000AFF8606F
:1034BC00B9601346FB80FB8803F48043002B7ED05D
:1034CC00FB681B68B3F850309BB21A46BB681B787C
:1034DC00DB00134402335B00FA681268134403F5F3
:1034EC0080631B88C3F309037B83BB689A697B8B5E
:1034FC009A4206D3BB689A697B8BD21ABB689A61D5
:10350C0002E0BB6800229A61BB689B69002B23D147
:10351C00FB681B681A46BB681B789B0013441B880E
:10352C009BB223F4804323F070033B833B8B83F4E7
:10353C0000533B83FB681B681A46BB681B789B00D7
:10354C001A443B8B43F07F4343F47F0343F4004323
:10355C0043F080039BB21380FB8803F04003002BE5
:10356C001FD0FB681B681A46BB681B789B00134472
:10357C001B889BB223F4E04323F07003FB82FB68AF
:10358C001B681A46BB681B789B001A44FB8A43F0E5
:10359C007F4343F47F0343F4004343F0C0039BB2E7
:1035AC0013807B8B002B00F08780FB681868BB684E
:1035BC005969BB681A897B8B04F0C1FB7CE0FB6802
:1035CC001B68B3F850309BB21A46BB681B78DB0003
:1035DC00134406335B00FA681268134403F58063E6
:1035EC001B88C3F309037B83BB689A697B8B9A4264
:1035FC0006D3BB689A697B8BD21ABB689A6102E0CE
:10360C00BB6800229A61BB689B69002B23D1FB68C5
:10361C001B681A46BB681B789B0013441B889BB223
:10362C0023F4804323F07003FB83FB8B83F4005360
:10363C00FB83FB681B681A46BB681B789B001A440B
:10364C00FB8B43F07F4343F47F0343F4004343F08D
:10365C0080039BB21380FB8803F04003002B1FD127
:10366C00FB681B681A46BB681B789B0013441B88BD
:10367C009BB223F4E04323F07003BB83FB681B680D
:10368C001A46BB681B789B001A44BB8B43F07F43E4
:10369C0043F47F0343F4004343F0C0039BB2138015
:1036AC007B8B002B08D0FB681868BB685969BB681A
:1036BC005A897B8B04F043FB7B8B18462037BD4625
:1036CC0080BD80B5A4B000AFF860B9601346FB8034
:1036DC00FB8803F04003002B00F0DD81FB681B68C6
:1036EC00B3F850309BB21A46BB681B78DB0013440E
:1036FC0002335B00FA681268134403F580631B887D
:10370C00C3F30903A7F88630BB689A69B7F886300B
:10371C009A4207D9BB689A69B7F88630D21ABB6847
:10372C009A6102E0BB6800229A61BB689B69002B1E
:10373C0040F0B980BB685B78002B26D1FB681B6816
:10374C00FB62FB681B68B3F850309BB21A46FB6AED
:10375C001344FB62BB681B781A01FB6A134403F227
:10376C000443BB62BB6A1B889BB2C3F309039AB2C6
:10377C00BB6A1A80BB6A1B889BB26FEA43436FEA31
:10378C0053439AB2BB6A1A801AE0BB685B78012B70
:10379C0016D1FB681B687B63FB681B68B3F8503061
:1037AC009BB21A467B6B13447B63BB681B781A0174
:1037BC007B6B134403F204433B633B6B00221A8084
:1037CC00FB681B687B62BB685B78002B26D1FB68AF
:1037DC001B68FB61FB681B68B3F850309BB21A4640
:1037EC00FB691344FB61BB681B781A01FB6913442A
:1037FC0003F20C43BB61BB691B889BB2C3F3090387
:10380C009AB2BB691A80BB691B889BB26FEA4343AF
:10381C006FEA53439AB2BB691A8017E0BB685B78B6
:10382C00012B13D1FB681B68B3F850309BB21A46BE
:10383C007B6A13447B62BB681B781A017B6A134456
:10384C0003F20C433B623B6A00221A80BB681B7874
:10385C001946F86806F0ABF8FB8803F48043002B9C
:10386C0000F0FC82FB681B681A46BB681B789B0047
:10387C0013441B889BB223F4E04323F07003FB82B8
:10388C00FB681B681A46BB681B789B001A44FB8AB2
:10389C0043F07F4343F47F0343F4404343F08003FE
:1038AC009BB21380DAE2FB8803F48043002B21D017
:1038BC00FB681B681A46BB681B789B0013441B886B
:1038CC009BB223F4E04323F07003A7F88A30FB6823
:1038DC001B681A46BB681B789B001A44B7F88A30E1
:1038EC0043F07F4343F47F0343F4404343F08003AE
:1038FC009BB21380BB6893F82430012B40F0AE824E
:10390C00BB685A69B7F886301A44BB685A61BB6801
:10391C00DA69B7F886301A44BB68DA61BB681A6A90
:10392C00BB681B699A420BD3BB681B69C7F88C3008
:10393C00BB681A6AD7F88C30D21ABB681A6217E0C7
:10394C00BB681B6A002B08D1B7F88630C7F88C30DF
:10395C00BB68002283F824200AE0BB68002283F8AD
:10396C002420BB681B6AC7F88C30BB6800221A6223
:10397C00BB685B78002B65D1FB681B68FB63FB683D
:10398C001B68B3F850309BB21A46FB6B1344FB63B5
:10399C00BB681B781A01FB6B134403F20443BB6333
:1039AC00BB6B1B889BB2C3F309039AB2BB6B1A8027
:1039BC00D7F88C303E2B1DD9D7F88C305B09BB6403
:1039CC00D7F88C3003F01F03002B02D1BB6C013BEA
:1039DC00BB64BB6B1B889AB2BB6C9BB29B029BB249
:1039EC0013439BB26FEA43436FEA53439AB2BB6BE8
:1039FC001A8044E0D7F88C30002B0AD1BB6B1B88A3
:103A0C009BB26FEA43436FEA53439AB2BB6B1A8083
:103A1C0035E0D7F88C305B08BB64D7F88C3003F0FA
:103A2C000103002B02D0BB6C0133BB64BB6B1B8846
:103A3C009AB2BB6C9BB29B029BB213439AB2BB6B08
:103A4C001A801CE0BB685B78012B18D1FB681B68E3
:103A5C007B64FB681B68B3F850309BB21A467B6CD6
:103A6C0013447B64BB681B781A017B6C134403F210
:103A7C0004433B64D7F88C309AB23B6C1A80FB68D9
:103A8C001868BB685969BB681A89D7F88C309BB227
:103A9C0004F00FF9E2E1FB681B68B3F850309BB2FD
:103AAC001A46BB681B78DB00134406335B00FA68CC
:103ABC001268134403F580631B88C3F30903A7F84A
:103ACC008630BB689A69B7F886309A4207D3BB68D0
:103ADC009A69B7F88630D21ABB689A6102E0BB6863
:103AEC0000229A61BB689B69002B40F0C080BB68C8
:103AFC005B78002B26D1FB681B68FB67FB681B6897
:103B0C00B3F850309BB21A46FB6F1344FB67BB688B
:103B1C001B781A01FB6F134403F20443BB67BB6FA2
:103B2C001B889BB2C3F309039AB2BB6F1A80BB6F9D
:103B3C001B889BB26FEA43436FEA53439AB2BB6F45
:103B4C001A801AE0BB685B78012B16D1FB681B68E6
:103B5C007B66FB681B68B3F850309BB21A467B6ED1
:103B6C0013447B66BB681B781A017B6E134403F20B
:103B7C0004433B663B6E00221A80FB681B687B6724
:103B8C00BB685B78002B2BD1FB681B68FB66FB6862
:103B9C001B68B3F850309BB21A46FB6E1344FB669D
:103BAC00BB681B781A01FB6E134403F20C43C7F875
:103BBC008030D7F880301B889BB2C3F309039AB2CC
:103BCC00D7F880301A80D7F880301B889BB26FEA08
:103BDC0043436FEA53439AB2D7F880301A8017E008
:103BEC00BB685B78012B13D1FB681B68B3F85030B2
:103BFC009BB21A467B6F13447B67BB681B781A0118
:103C0C007B6F134403F20C433B673B6F00221A801B
:103C1C00BB681B781946F86805F0C9FEFB8803F4ED
:103C2C008043002B40F01A81FB681B681A46BB6866
:103C3C001B789B0013441B889BB223F4E04323F0B6
:103C4C007003A7F88830FB681B681A46BB681B78A2
:103C5C009B001A44B7F8883043F07F4343F47F034A
:103C6C0043F4404343F080039BB21380F6E0FB889F
:103C7C0003F48043002B21D1FB681B681A46BB68F8
:103C8C001B789B0013441B889BB223F4E04323F066
:103C9C007003A7F84E30FB681B681A46BB681B788C
:103CAC009B001A44B7F84E3043F07F4343F47F0334
:103CBC0043F4404343F080039BB21380BB6893F8FA
:103CCC002430012B40F0CA80BB685A69B7F88630A3
:103CDC001A44BB685A61BB68DA69B7F886301A4473
:103CEC00BB68DA61BB681A6ABB681B699A420BD362
:103CFC00BB681B69C7F88C30BB681A6AD7F88C3064
:103D0C00D21ABB681A6217E0BB681B6A002B08D179
:103D1C00B7F88630C7F88C30BB68002283F82420B3
:103D2C000AE0BB681B6AC7F88C30BB6800221A62B9
:103D3C00BB68002283F82420FB681B687B65BB688A
:103D4C005B78002B65D1FB681B68FB65FB681B6807
:103D5C00B3F850309BB21A46FB6D1344FB65BB683D
:103D6C001B781A01FB6D134403F20C43BB65BB6D4E
:103D7C001B889BB2C3F309039AB2BB6D1A80D7F8A8
:103D8C008C303E2B1DD9D7F88C305B09BB66D7F82D
:103D9C008C3003F01F03002B02D1BB6E013BBB66C2
:103DAC00BB6D1B889AB2BB6E9BB29B029BB213433A
:103DBC009BB26FEA43436FEA53439AB2BB6D1A80CE
:103DCC0041E0D7F88C30002B0AD1BB6D1B889BB21D
:103DDC006FEA43436FEA53439AB2BB6D1A8032E0E9
:103DEC00D7F88C305B08BB66D7F88C3003F0010336
:103DFC00002B02D0BB6E0133BB66BB6D1B889AB225
:103E0C00BB6E9BB29B029BB213439AB2BB6D1A80E2
:103E1C0019E0BB685B78012B15D1FB681B68B3F804
:103E2C0050309BB21A467B6D13447B65BB681B7884
:103E3C001A017B6D134403F20C433B65D7F88C30AD
:103E4C009AB23B6D1A80FB681868BB685969BB68ED
:103E5C005A89D7F88C309BB203F02BFFFB681B6898
:103E6C001A46BB681B789B0013441B889BB223F437
:103E7C00E04323F04003BB82BB8A83F01003BB8278
:103E8C00BB8A83F02003BB82FB681B681A46BB68A5
:103E9C001B789B001A44BB8A43F07F4343F47F0397
:103EAC0043F4004343F080039BB213800023184675
:103EBC009037BD4680BD80B487B000AFF8607B60A2
:103ECC000B467B8113463B817B8903F080039BB2BD
:103EDC00002B0BD07B8903F0070213469B00134485
:103EEC00DB001033FA6813447B6109E07A891346CE
:103EFC009B001344DB0003F5A873FA6813447B6141
:103F0C003B89002B07D17B6900221A737B689AB21C
:103F1C007B69DA800BE07B6901221A737B689AB2A9
:103F2C007B691A817B681B0C9AB27B695A810023CE
:103F3C0018461C37BD4680BC7047000080B586B063
:103F4C0000AF78607B68002B01D1012372E27B68A3
:103F5C001B6803F00103002B00F08780924B5B6819
:103F6C0003F00C03042B0CD08F4B5B6803F00C0399
:103F7C00082B12D18C4B5B6803F48033B3F5803F74
:103F8C000BD1894B1B6803F40033002B6CD07B687E
:103F9C005B68002B68D101234CE27B685B68B3F54E
:103FAC00803F06D1804B1B687F4A43F480331360FB
:103FBC002EE07B685B68002B0CD17B4B1B687A4A2C
:103FCC0023F480331360784B1B68774A23F48023E7
:103FDC0013601DE07B685B68B3F5A02F0CD1724BAE
:103FEC001B68714A43F4802313606F4B1B686E4A45
:103FFC0043F4803313600BE06B4B1B686A4A23F469
:10400C0080331360684B1B68674A23F4802313606A
:10401C007B685B68002B13D0FDF718F8386108E05B
:10402C00FDF714F802463B69D31A642B01D903231C
:10403C0000E25D4B1B6803F40033002BF0D014E05E
:10404C00FDF704F8386108E0FDF700F802463B691B
:10405C00D31A642B01D90323ECE1534B1B6803F4F3
:10406C000033002BF0D100E000BF7B681B6803F02D
:10407C000203002B63D04C4B5B6803F00C03002B4A
:10408C000BD0494B5B6803F00C03082B1CD1464B3F
:10409C005B6803F48033002B16D1434B1B6803F091
:1040AC000203002B05D07B681B69012B01D0012377
:1040BC00C0E13D4B1B6823F0F8027B685B69DB00B9
:1040CC00394913430B603AE07B681B69002B20D005
:1040DC00364B01221A60FCF7B9FF386108E0FCF797
:1040EC00B5FF02463B69D31A022B01D90323A1E188
:1040FC002D4B1B6803F00203002BF0D02A4B1B68DE
:10410C0023F0F8027B685B69DB00274913430B60E3
:10411C0015E0264B00221A60FCF798FF386108E086
:10412C00FCF794FF02463B69D31A022B01D90323F7
:10413C0080E11D4B1B6803F00203002BF0D17B6860
:10414C001B6803F00803002B3AD07B689B69002B9B
:10415C0019D0174B01221A60FCF778FF386108E080
:10416C00FCF774FF02463B69D31A022B01D90323D7
:10417C0060E10D4B5B6A03F00203002BF0D00120D1
:10418C0000F0BAFA1CE00A4B00221A60FCF75EFF42
:10419C0038610FE0FCF75AFF02463B69D31A022B39
:1041AC0008D9032346E100BF001002400000424240
:1041BC0080044242924B5B6A03F00203002BE9D16C
:1041CC007B681B6803F00403002B00F0A68000231F
:1041DC00FB758B4BDB6903F08053002B0DD1884BA7
:1041EC00DB69874A43F08053D361854BDB6903F06D
:1041FC008053BB60BB680123FB75824B1B6803F4C7
:10420C008073002B18D17F4B1B687E4A43F480735C
:10421C001360FCF71BFF386108E0FCF717FF024640
:10422C003B69D31A642B01D9032303E1754B1B683B
:10423C0003F48073002BF0D07B68DB68012B06D174
:10424C006F4B1B6A6E4A43F0010313622DE07B68CF
:10425C00DB68002B0CD16A4B1B6A694A23F0010303
:10426C001362674B1B6A664A23F0040313621CE05B
:10427C007B68DB68052B0CD1614B1B6A604A43F0F1
:10428C00040313625E4B1B6A5D4A43F00103136225
:10429C000BE05B4B1B6A5A4A23F001031362584B29
:1042AC001B6A574A23F0040313627B68DB68002BFC
:1042BC0015D0FCF7CBFE38610AE0FCF7C7FE0246CE
:1042CC003B69D31A41F28832934201D90323B1E0FE
:1042DC004B4B1B6A03F00203002BEED014E0FCF7EF
:1042EC00B5FE38610AE0FCF7B1FE02463B69D31A11
:1042FC0041F28832934201D903239BE0404B1B6A65
:10430C0003F00203002BEED1FB7D012B05D13C4BBE
:10431C00DB693B4A23F08053D3617B68DB69002B5C
:10432C0000F08780364B5B6803F00C03082B61D0E0
:10433C007B68DB69022B46D1334B00221A60FCF7F9
:10434C0085FE386108E0FCF781FE02463B69D31A12
:10435C00022B01D903236DE0294B1B6803F000737A
:10436C00002BF0D17B681B6AB3F5803F08D1244B3E
:10437C005B6823F400327B689B68214913434B60D4
:10438C001F4B5B6823F474127B68196A7B685B6A49
:10439C000B431B4913434B601B4B01221A60FCF768
:1043AC0055FE386108E0FCF751FE02463B69D31A12
:1043BC00022B01D903233DE0114B1B6803F0007362
:1043CC00002BF0D035E0104B00221A60FCF73EFEBB
:1043DC00386108E0FCF73AFE02463B69D31A022B1F
:1043EC0001D9032326E0064B1B6803F00073002B56
:1043FC00F0D11EE07B68DB69012B07D1012319E0AA
:10440C000010024000700040600042420B4B5B68A1
:10441C00FB60FB6803F480327B681B6A9A4206D10E
:10442C00FB6803F470127B685B6A9A4201D001232B
:10443C0000E0002318461837BD4680BD001002402E
:10444C0080B584B000AF786039607B68002B01D1F7
:10445C000123D0E06A4B1B6803F007033A689A42C9
:10446C0010D9674B1B6823F0070265493B6813435F
:10447C000B60634B1B6803F007033A689A4201D048
:10448C000123B8E07B681B6803F00203002B20D0EB
:10449C007B681B6803F00403002B05D0594B5B6849
:1044AC00584A43F4E06353607B681B6803F00803CD
:1044BC00002B05D0534B5B68524A43F46053536056
:1044CC00504B5B6823F0F0027B689B684D491343AB
:1044DC004B607B681B6803F00103002B40D07B68AA
:1044EC005B68012B07D1474B1B6803F40033002B8F
:1044FC0015D101237FE07B685B68022B07D1414B10
:10450C001B6803F00073002B09D1012373E03D4BB2
:10451C001B6803F00203002B01D101236BE0394B24
:10452C005B6823F003027B685B68364913434B607E
:10453C00FCF78CFDF8600AE0FCF788FD0246FB688E
:10454C00D31A41F28832934201D9032353E02D4B05
:10455C005B6803F00C027B685B689B009A42EBD1B2
:10456C00274B1B6803F007033A689A4210D2244B7E
:10457C001B6823F0070222493B6813430B60204B56
:10458C001B6803F007033A689A4201D0012332E01A
:10459C007B681B6803F00403002B08D0194B5B6885
:1045AC0023F4E0627B68DB68164913434B607B683D
:1045BC001B6803F00803002B09D0124B5B6823F433
:1045CC0060527B681B69DB000E4913434B6000F0A3
:1045DC0021F802460B4B5B681B0903F00F030A49D9
:1045EC00CB5C22FA03F3094A1360094B1B6818468B
:1045FC00FCF7EAFC002318461037BD4680BD00BF0F
:10460C00002002400010024050A9000804000020C5
:10461C000800002080B487B000AF0023FB600023AB
:10462C00BB6000237B6100237B6000233B611E4B3E
:10463C005B68FB60FB6803F00C03042B02D0082BB7
:10464C0003D027E0194B3B6127E0FB689B0C03F080
:10465C000F03174AD35C7B60FB6803F48033002B99
:10466C0010D0114B5B685B0C03F00103114AD35C57
:10467C00BB607B680D4A03FB02F2BB68B2FBF3F331
:10468C007B6104E07B680C4A02FB03F37B617B6972
:10469C003B6102E0054B3B6100BF3B6918461C3790
:1046AC00BD4680BC704700BF0010024000127A006B
:1046BC0068A9000878A9000800093D0080B400AF83
:1046CC00024B1B681846BD4680BC70470400002096
:1046DC0080B500AFFFF7F2FF0246054B5B68DB0AC3
:1046EC0003F007030349CB5C22FA03F3184680BDA1
:1046FC000010024060A9000880B485B000AF78605B
:10470C000A4B1B680A4AA2FB03235B0A7A6802FB6A
:10471C0003F3FB6000BFFB685A1EFA60002BF9D153
:10472C0000BF00BF1437BD4680BC7047040000209A
:10473C00D34D621080B586B000AF786000233B612A
:10474C000023FB607B681B6803F00103002B7DD00A
:10475C000023FB754F4BDB6903F08053002B0DD10D
:10476C004C4BDB694B4A43F08053D361494BDB69BB
:10477C0003F08053BB60BB680123FB75464B1B6881
:10478C0003F48073002B18D1434B1B68424A43F44B
:10479C0080731360FCF75AFC386108E0FCF756FC98
:1047AC0002463B69D31A642B01D903236DE03A4BC3
:1047BC001B6803F48073002BF0D0364B1B6A03F498
:1047CC004073FB60FB68002B2ED07B685B6803F4A6
:1047DC004073FA689A4227D02E4B1B6A23F440731D
:1047EC00FB602E4B01221A602C4B00221A60294AC6
:1047FC00FB681362FB6803F00103002B14D0FCF779
:10480C0025FC38610AE0FCF721FC02463B69D31A0F
:10481C0041F28832934201D9032336E01D4B1B6AC7
:10482C0003F00203002BEED01A4B1B6A23F44072E8
:10483C007B685B68174913430B62FB7D012B05D129
:10484C00144BDB69134A23F08053D3617B681B68DC
:10485C0003F00203002B08D00E4B5B6823F440429C
:10486C007B689B680B4913434B607B681B6803F0A8
:10487C001003002B08D0074B5B6823F480027B6885
:10488C00DB68044913434B60002318461837BD46B8
:10489C0080BD00BF00100240007000404004424246
:1048AC0080B588B000AF786000237B610023FB618A
:1048BC0000233B610023FB600023BB617B68102B52
:1048CC000AD07B68102B00F28A807B68012B45D0C4
:1048DC007B68022B75D082E0464B5B68FB60454BD6
:1048EC001B6803F08073002B7BD0FB689B0C03F0E0
:1048FC000F03414AD35C3B61FB6803F48033002B0C
:10490C0015D03C4B5B685B0C03F001033B4AD35C5A
:10491C007B61FB6803F48033002B0DD0384A7B6934
:10492C00B2FBF3F23B6902FB03F3FB6104E03B696E
:10493C00344A02FB03F3FB612E4B5B6803F48003E8
:10494C00B3F5800F02D1FB69BB614AE0FB695B00E8
:10495C002D4AA2FB03235B08BB6142E0254B1B6A7B
:10496C00FB60FB6803F44073B3F5807F08D1FB68F0
:10497C0003F00203002B03D04FF40043BB611FE094
:10498C00FB6803F44073B3F5007F09D1194B5B6AE4
:10499C0003F00203002B03D049F64043BB610FE048
:1049AC00FB6803F44073B3F5407F1CD1114B1B68BB
:1049BC0003F40033002B16D04FF22443BB6112E0FA
:1049CC0011E0FFF785FE02460A4B5B689B0B03F078
:1049DC00030301335B00B2FBF3F3BB6104E000BFE4
:1049EC0002E000BF00E000BFBB6918462037BD469F
:1049FC0080BD00BF001002407CA900088CA90008F3
:104A0C0000127A0000093D00ABAAAAAA80B582B0B8
:104A1C0000AF78607B68002B01D1012341E07B68FB
:104A2C0093F83D30DBB2002B06D17B68002283F873
:104A3C003C207868FCF7ACF97B68022283F83D20B7
:104A4C007B681A687B6804331946104600F022FB19
:104A5C007B68012283F846207B68012283F83E2084
:104A6C007B68012283F83F207B68012283F8402079
:104A7C007B68012283F841207B68012283F8422065
:104A8C007B68012283F843207B68012283F8442051
:104A9C007B68012283F845207B68012283F83D2046
:104AAC00002318460837BD4680BD000080B485B091
:104ABC0000AF78607B6893F83D30DBB2012B01D0FE
:104ACC00012332E07B68022283F83D207B681B685F
:104ADC00184A93420ED07B681B68B3F1804F09D003
:104AEC007B681B68144A934204D07B681B68134A8A
:104AFC00934211D17B681B689B6803F00703FB6032
:104B0C00FB68062B10D07B681B681A687B681B68D7
:104B1C0042F001021A6007E07B681B681A687B6828
:104B2C001B6842F001021A60002318461437BD4678
:104B3C0080BC7047002C014000040040000800407D
:104B4C0080B483B000AF78607B681B681A6A41F24E
:104B5C0011131340002B0FD17B681B681A6A40F2AB
:104B6C0044431340002B07D17B681B681A687B6891
:104B7C001B6822F001021A607B68012283F83D2039
:104B8C00002318460C37BD4680BC704780B582B0F8
:104B9C0000AF78607B68002B01D1012341E07B687A
:104BAC0093F83D30DBB2002B06D17B68002283F8F2
:104BBC003C20786800F039F87B68022283F83D20AD
:104BCC007B681A687B6804331946104600F062FA59
:104BDC007B68012283F846207B68012283F83E2003
:104BEC007B68012283F83F207B68012283F84020F8
:104BFC007B68012283F841207B68012283F84220E4
:104C0C007B68012283F843207B68012283F84420CF
:104C1C007B68012283F845207B68012283F83D20C4
:104C2C00002318460837BD4680BD80B483B000AF62
:104C3C00786000BF0C37BD4680BC704780B584B02F
:104C4C0000AF786039603B68002B09D17B6893F822
:104C5C003E30DBB2012B14BF01230023DBB222E078
:104C6C003B68042B09D17B6893F83F30DBB2012BF6
:104C7C0014BF01230023DBB215E03B68082B09D1DC
:104C8C007B6893F84030DBB2012B14BF0123002367
:104C9C00DBB208E07B6893F84130DBB2012B14BF28
:104CAC0001230023DBB2002B01D001235EE03B6823
:104CBC00002B04D17B68022283F83E2013E03B6872
:104CCC00042B04D17B68022283F83F200BE03B6865
:104CDC00082B04D17B68022283F8402003E07B6818
:104CEC00022283F841207B681B6801223968184630
:104CFC0000F05CFC7B681B681E4A934207D17B6802
:104D0C001B685A6C7B681B6842F400425A647B68CF
:104D1C001B68184A93420ED07B681B68B3F1804F16
:104D2C0009D07B681B68144A934204D07B681B68CB
:104D3C00124A934211D17B681B689B6803F00703EE
:104D4C00FB60FB68062B10D07B681B681A687B68BD
:104D5C001B6842F001021A6007E07B681B681A6846
:104D6C007B681B6842F001021A600023184610375A
:104D7C00BD4680BD002C01400004004000080040EE
:104D8C0080B586B000AFF860B9607A600023FB751F
:104D9C00FB6893F83C30012B01D10223AEE0FB6899
:104DAC00012283F83C207B680C2B00F29F8001A22F
:104DBC0052F823F0F54D0008F94E0008F94E0008A2
:104DCC00F94E0008354E0008F94E0008F94E00085F
:104DDC00F94E0008774E0008F94E0008F94E00080D
:104DEC00F94E0008B74E0008FB681B68B9681846F6
:104DFC0000F0BEF9FB681B689A69FB681B6842F0FF
:104E0C0008029A61FB681B689A69FB681B6822F0B0
:104E1C0004029A61FB681B689969BB681A69FB6894
:104E2C001B680A439A6164E0FB681B68B968184602
:104E3C0000F004FAFB681B689A69FB681B6842F473
:104E4C0000629A61FB681B689A69FB681B6822F414
:104E5C0080629A61FB681B689969BB681B691A02BE
:104E6C00FB681B680A439A6143E0FB681B68B968DE
:104E7C00184600F04DFAFB681B68DA69FB681B6882
:104E8C0042F00802DA61FB681B68DA69FB681B6890
:104E9C0022F00402DA61FB681B68D969BB681A69E5
:104EAC00FB681B680A43DA6123E0FB681B68B9687E
:104EBC00184600F097FAFB681B68DA69FB681B68F8
:104ECC0042F40062DA61FB681B68DA69FB681B68F4
:104EDC0022F48062DA61FB681B68D969BB681B69C4
:104EEC001A02FB681B680A43DA6102E00123FB75B6
:104EFC0000BFFB68002283F83C20FB7D1846183766
:104F0C00BD4680BD80B584B000AF786039600023A9
:104F1C00FB737B6893F83C30012B01D10223B4E086
:104F2C007B68012283F83C207B68022283F83D20B9
:104F3C007B681B689B68BB60BB6823F07703BB6016
:104F4C00BB6823F47F43BB607B681B68BA689A60BC
:104F5C003B681B68B3F5005F3ED0B3F5005F00F211
:104F6C008780B3F5805F00F08680B3F5805F7FD8D3
:104F7C00702B1AD0702B7BD8602B50D0602B77D82D
:104F8C00502B3CD0502B73D8402B58D0402B6FD883
:104F9C00302B64D0302B6BD8202B60D0202B67D8D3
:104FAC00002B5CD0102B5AD062E07B6818683B68F1
:104FBC0099683B685A683B68DB6800F0D8FA7B68F4
:104FCC001B689B68BB60BB6843F07703BB607B6866
:104FDC001B68BA689A604FE07B6818683B689968F0
:104FEC003B685A683B68DB6800F0C1FA7B681B6859
:104FFC009A687B681B6842F480429A603CE07B684C
:10500C0018683B6859683B68DB681A4600F038FA48
:10501C007B681B685021184600F08FFA2CE07B68E7
:10502C0018683B6859683B68DB681A4600F056FA0A
:10503C007B681B686021184600F07FFA1CE07B68D7
:10504C0018683B6859683B68DB681A4600F018FA28
:10505C007B681B684021184600F06FFA0CE07B68F7
:10506C001A683B681B681946104600F066FA03E0A4
:10507C000123FB7300E000BF7B68012283F83D2015
:10508C007B68002283F83C20FB7B18461037BD461A
:10509C0080BD000080B485B000AF786039607B685B
:1050AC001B68FB607B682F4A93420BD07B68B3F183
:1050BC00804F07D07B682C4A934203D07B682B4AE5
:1050CC00934208D1FB6823F07003FB603B685B687C
:1050DC00FA681343FB607B68224A93420BD07B68CF
:1050EC00B3F1804F07D07B681F4A934203D07B6893
:1050FC001E4A934208D1FB6823F44073FB603B6863
:10510C00DB68FA681343FB60FB6823F080023B68A2
:10511C005B691343FB607B68FA681A603B689A68AA
:10512C007B68DA623B681A687B689A627B680D4A16
:10513C00934203D13B681A697B681A637B6801222E
:10514C005A617B681B6903F00103002B05D07B6857
:10515C001B6923F001027B681A6100BF1437BD463E
:10516C0080BC7047002C0140000400400008004047
:10517C0080B487B000AF786039607B681B6A7B6154
:10518C007B681B6A23F001027B681A627B685B6890
:10519C003B617B689B69FB60FB6823F07003FB60E1
:1051AC00FB6823F00303FB603B681B68FA6813433E
:1051BC00FB607B6923F002037B613B689B687A6927
:1051CC0013437B617B681C4A93420CD17B6923F0AF
:1051DC0008037B613B68DB687A6913437B617B69FD
:1051EC0023F004037B617B68134A934211D13B6922
:1051FC0023F480733B613B6923F400733B613B6890
:10520C005B693A6913433B613B689B693A69134399
:10521C003B617B683A695A607B68FA689A613B68C3
:10522C005A687B685A637B687A691A6200BF1C37BC
:10523C00BD4680BC704700BF002C014080B487B0D5
:10524C0000AF786039607B681B6A7B617B681B6A86
:10525C0023F010027B681A627B685B683B617B6899
:10526C009B69FB60FB6823F4E043FB60FB6823F461
:10527C004073FB603B681B681B02FA681343FB60BE
:10528C007B6923F020037B613B689B681B017A6977
:10529C0013437B617B681D4A93420DD17B6923F0DC
:1052AC0080037B613B68DB681B017A6913437B617C
:1052BC007B6923F040037B617B68144A934213D1D2
:1052CC003B6923F480633B613B6923F400633B61DE
:1052DC003B685B699B003A6913433B613B689B6984
:1052EC009B003A6913433B617B683A695A607B685F
:1052FC00FA689A613B685A687B689A637B687A693A
:10530C001A6200BF1C37BD4680BC7047002C0140A0
:10531C0080B487B000AF786039607B681B6A7B61B2
:10532C007B681B6A23F480727B681A627B685B68FB
:10533C003B617B68DB69FB60FB6823F07003FB60FF
:10534C00FB6823F00303FB603B681B68FA6813439C
:10535C00FB607B6923F400737B613B689B681B02D9
:10536C007A6913437B617B681D4A93420DD17B693B
:10537C0023F400637B613B68DB681B027A6913438F
:10538C007B617B6923F480637B617B68144A934265
:10539C0013D13B6923F480533B613B6923F40053E5
:1053AC003B613B685B691B013A6913433B613B689A
:1053BC009B691B013A6913433B617B683A695A60EC
:1053CC007B68FA68DA613B685A687B68DA637B68E9
:1053DC007A691A6200BF1C37BD4680BC704700BF9B
:1053EC00002C014080B487B000AF786039607B68D6
:1053FC001B6A3B617B681B6A23F480527B681A62D0
:10540C007B685B687B617B68DB69FB60FB6823F412
:10541C00E043FB60FB6823F44073FB603B681B6854
:10542C001B02FA681343FB603B6923F400533B6196
:10543C003B689B681B033A6913433B617B680F4ACB
:10544C00934209D17B6923F480437B613B685B69A0
:10545C009B017A6913437B617B687A695A607B682C
:10546C00FA68DA613B685A687B681A647B683A6947
:10547C001A6200BF1C37BD4680BC7047002C01402F
:10548C0080B487B000AFF860B9607A60FB681B6AC3
:10549C007B61FB681B6A23F00102FB681A62FB68E4
:1054AC009B693B613B6923F0F0033B617B681B010B
:1054BC003A6913433B617B6923F00A037B617A6988
:1054CC00BB6813437B61FB683A699A61FB687A6934
:1054DC001A6200BF1C37BD4680BC704780B487B0D1
:1054EC0000AFF860B9607A60FB681B6A7B61FB688F
:1054FC001B6A23F01002FB681A62FB689B693B6114
:10550C003B6923F470433B617B681B033A6913438B
:10551C003B617B6923F0A0037B61BB681B017A694B
:10552C0013437B61FB683A699A61FB687A691A627A
:10553C0000BF1C37BD4680BC704780B485B000AF3F
:10554C00786039607B689B68FB60FB6823F07003B4
:10555C00FB603A68FB68134343F00703FB607B680E
:10556C00FA689A6000BF1437BD4680BC704780B49F
:10557C0087B000AFF860B9607A603B60FB689B68ED
:10558C007B617B6923F47F437B613B681A027B68F8
:10559C001A43BB6813437A6913437B61FB687A69CE
:1055AC009A6000BF1C37BD4680BC704780B487B082
:1055BC0000AFF860B9607A60BB6803F01F0301228A
:1055CC0002FA03F37B61FB681A6A7B69DB431A40BE
:1055DC00FB681A62FB681A6ABB6803F01F037968E0
:1055EC0001FA03F31A43FB681A6200BF1C37BD466D
:1055FC0080BC704780B485B000AF786039607B6840
:10560C0093F83C30012B01D1022346E07B68012248
:10561C0083F83C207B68022283F83D207B681B6862
:10562C005B68FB607B681B689B68BB60FB6823F056
:10563C007003FB603B681B68FA681343FB607B6874
:10564C001B68FA685A607B681B68164A93420ED036
:10565C007B681B68B3F1804F09D07B681B68124ACA
:10566C00934204D07B681B68104A93420CD1BB68F0
:10567C0023F08003BB603B685B68BA681343BB6074
:10568C007B681B68BA689A607B68012283F83D20AE
:10569C007B68002283F83C20002318461437BD4653
:1056AC0080BC7047002C0140000400400008004002
:1056BC0080B485B000AFF860384680E80E00002357
:1056CC0018461437BD4680BC704780B485B000AF17
:1056DC0078607B680022A3F844204FF43F43FB60C2
:1056EC00FB689AB27B68A3F8402000231846143755
:1056FC00BD4680BC704780B485B000AF78604FF475
:10570C003F43FB607B68B3F840309AB2FB689BB2B6
:10571C00DB439BB213409AB27B68A3F84020002372
:10572C0018461437BD4680BC704780B483B000AFB8
:10573C0078600B46FB70002318460C37BD4680BCC6
:10574C00704780B485B000AFF860384680E80E0032
:10575C00FB680122A3F84020FB680022A3F840203C
:10576C00FB680022A3F84420FB680022A3F8502019
:10577C00002318461437BD4680BC704780B49DB0DA
:10578C0000AF78603960002387F86F307A683B6827
:10579C001B789B0013441B889BB223F4EC4323F02F
:1057AC007003A7F86C303B68DB78032B1FD801A281
:1057BC0052F823F0D1570008ED57000803580008A1
:1057CC00DF570008B7F86C3043F40073A7F86C305F
:1057DC0012E0B7F86C3043F4C063A7F86C300BE000
:1057EC00B7F86C3043F48063A7F86C3004E0012305
:1057FC0087F86F3000E000BF7A683B681B789B002D
:10580C001A44B7F86C3043F07F4343F47F0343F4FE
:10581C00004343F080039BB213807A683B681B788B
:10582C009B0013441B889BB223F4E04323F07003CA
:10583C009BB23A6812781343A7F866307A683B68D3
:10584C001B789B001A44B7F8663043F07F4343F44F
:10585C007F0343F4004343F080039BB213803B6807
:10586C001B7B002B40F078813B685B78002B00F0B1
:10587C0084807B68BB617B68B3F850309BB21A465E
:10588C00BB691344BB613B681B781A01BB691344A9
:10589C0003F580637B613B68DB885B089BB25B0034
:1058AC009AB27B691A807A683B681B789B00134418
:1058BC001B887B827B8A03F04003002B1BD07A6809
:1058CC003B681B789B0013441B889BB223F4E0437A
:1058DC0023F070033B827A683B681B789B001A4468
:1058EC003B8A43F07F4343F47F0343F4004343F08C
:1058FC00C0039BB213803B68DB78012B20D07A6805
:10590C003B681B789B0013441B889BB223F4E04339
:10591C0023F04003BB81BB8983F02003BB817A68F1
:10592C003B681B789B001A44BB8943F07F4343F4CC
:10593C007F0343F4004343F080039BB21380D5E212
:10594C007A683B681B789B0013441B889BB223F43A
:10595C00E04323F04003FB817A683B681B789B0093
:10596C001A44FB8943F07F4343F47F0343F4004321
:10597C0043F080039BB21380B8E27B683B637B6887
:10598C00B3F850309BB21A463B6B13443B633B68F5
:10599C001B781A013B6B134403F58163FB623B6874
:1059AC00DB885B089BB25B009AB2FB6A1A807B684F
:1059BC00BB627B68B3F850309BB21A46BB6A134487
:1059CC00BB623B681B781A01BB6A134403F20C439D
:1059DC007B627B6A1B889BB2C3F309039AB27B6A16
:1059EC001A803B681B693E2B1DD93B681B695B0900
:1059FC00BB663B681B6903F01F03002B02D1BB6E17
:105A0C00013BBB667B6A1B889AB2BB6E9BB29B0246
:105A1C009BB213439BB26FEA43436FEA53439AB270
:105A2C007B6A1A8026E03B681B69002B0AD17B6AD3
:105A3C001B889BB26FEA43436FEA53439AB27B6A6B
:105A4C001A8017E03B681B695B08BB663B681B69E7
:105A5C0003F00103002B02D0BB6E0133BB667B6AE3
:105A6C001B889AB2BB6E9BB29B029BB213439AB239
:105A7C007B6A1A807A683B681B789B0013441B88EE
:105A8C007B847B8C03F48043002B1BD07A683B68AF
:105A9C001B789B0013441B889BB223F4E04323F038
:105AAC0070033B847A683B681B789B001A443B8CE0
:105ABC0043F07F4343F47F0343F4404343F08003BC
:105ACC009BB213803B681B78002B24D17A683B680F
